:040000007BEF05F09D
:08000800046ED8CF05F0E0CF33
:1000100006F00001E9CF0CF0EACF07F0E1CF08F0DD
:10002000E2CF09F0D9CF0AF0DACF0BF0F3CF12F01C
:10003000F4CF13F0FACF14F0F5CF15F0F6CF16F099
:10004000F7CF17F000C00EF001C00FF002C010F0A3
:1000500003C011F0F2AA30EF00F0F2B480EF01F02B
:10006000F0A836EF00F0F0B267EF00F00EC000F03D
:100070000FC001F010C002F011C003F00CC0E9FF86
:1000800007C0EAFF078E08C0E1FF09C0E2FF0AC00F
:10009000D9FF0BC0DAFF12C0F3FF13C0F4FF14C086
:1000A000FAFF15C0F5FF16C0F6FF17C0F7FF0450A2
:1000B00006C0E0FF05C0D8FF1000F76ACA0FF66E51
:1000C000000EF7220900F5501200280C0106010E5F
:1000D0002B26F092F09236EF00F0080E016E000031
:1000E0008A92939200006B378A90D8B09380D8A000
:1000F0009390938281A2FED7012EF1D700008A92BD
:1001000093920000938000000000938281A2FED7AA
:10011000016A000081B001808A9293928A90939044
:1001200012006951000A03E0010A21E041D0683958
:10013000006EF00E001600501E106A6F6B6FCDDF60
:1001400000006839006EF00E0016005004091E1001
:100150006A6F6B6FC2DF00D06839006EF00E001658
:100160000050FB0B1E106A6F6B6FB7DF21D0683930
:10017000006EF00E0016005001091E106A6F6B6FC2
:10018000ACDF00006839006EF00E00160050010967
:1001900004091E106A6F6B6FA0DF00D06839006E13
:1001A000F00E0016005001091E106A6F6B6F95DF8C
:1001B000120093800000938200008A9093900000C8
:1001C0008A9293921AC06BF088DF6539676F0F0EC1
:1001D000671767C068F066C069F0A3DF65510F0B51
:1001E000676F686F66C069F09CDF93900000938230
:1001F00081A2FED7000000D0000093800000120012
:10020000EA6A5E0EE96EEF500EE0010E016E006AC2
:10021000002EFED7012EFBD74A0E006E002EFED711
:1002200000D0EF2EF2D71200010E656F666BC1DFB2
:10023000020E5E6EE5DF010E1D6E12005F501B5C4C
:1002400003E21BC060F002D05FC060F06051010AA1
:1002500007E0030A07E0010A08E0070A09E00BD0FB
:10026000626B0AD0400E626F07D0140E626F04D02A
:10027000540E626F01D0626B5E501C5C03E21CC0C6
:1002800061F002D05EC061F0010E615D6225636FB6
:1002900063518009646F656F666B8BDF12005D5080
:1002A0000C0A05E0060A05E0020A0FE013D0BCDFE5
:1002B00016D01D2A1D501B5C02E2010E1D6E010EA0
:1002C0005E6E1DC05FF0BADF0AD0100E656F666B00
:1002D00070DF05D05DC065F0010E666F6ADF120049
:1002E0000900F5520CE0F6CF5BF0F7CF5CF0F5CFEC
:1002F0005DF0D5DF5BC0F6FF5CC0F7FFF1D7120001
:10030000F098F29A2C902B50090802E22C8201D02E
:100310002C92F2940C0E5D6EC2DF050E5E6E010E25
:100320005F6E8CDF360EF66E030EF76ED9DFF29A33
:10033000F29436EF00F020554E4558504F00204DB6
:10034000454E55205052494E434950414C002031B2
:100350003E414436323020333E4E45585400204111
:10036000443632302054657374696E672E2E2E0029
:1003700020563A25302E32662E20323E52657400C9
:1003800020313E35353520323E4C4D32323400007E
:1003900020343E37343120333E5061672E53696735
:1003A0002E00203535352054657374696E672E2E06
:1003B0002E0020323E566F6C766572004D616C6F78
:1003C0002025690020323E566F6C766572004275BA
:1003D000656E6F202569000020323E566F6C766591
:1003E000720020526567726573616E646F2E2E2EE7
:1003F0000000204C4D3232342054657374696E67AE
:100400002E2E2E0020323E566F6C766572002052E2
:100410006567726573616E646F2E2E2E0000203743
:1004200034312054657374696E672E2E2E0020328D
:100430003E566F6C76657200205265677265736117
:100440006E646F2E2E2E000020313E4C4D33353819
:1004500020323E4C4D333438000020343E4C4D3376
:10046000323420333E52455455524E00204C4D33C9
:1004700032342054657374696E672E2E2E0020323C
:100480003E566F6C766572002052656772657361C7
:100490006E646F2E2E2E00003FC01AF041C01BF07C
:1004A00040C01CF0F29CF29EF2BEFDD7196AF2BE6B
:1004B000198EF29E320E5E6EA3DE19BEF28E93800E
:1004C0000000938200008A90939000008A92939299
:1004D000196AF2BE198EF29E1AC06BF0FEDD19BECB
:1004E000F28E196AF2BE198EF29E686B696B19DE84
:1004F00019BEF28E196AF2BE198EF29E0F0E5E6E52
:100500007FDE19BEF28E010E426E4250030815E3E3
:10051000196AF2BE198EF29E030E686F696B01DED6
:1005200019BEF28E196AF2BE198EF29E050E5E6E2B
:1005300067DE19BEF28E422AE8D7196AF2BE198E1A
:10054000F29E020E686F696BECDD19BEF28E196ABD
:10055000F2BE198EF29E050E5E6E52DE19BEF28E4E
:1005600093900000938281A2FED7000000D000008B
:1005700093800000426A4250030818E3036A425025
:100580009CDD436E196AF2BE198EF29E656F666B32
:1005900010DE19BEF28E196AF2BE198EF29E050E99
:1005A0005E6E2EDE19BEF28E422AE5D7196AF2BEC1
:1005B000198EF29E39DE19BEF28EC00EF212ACEF29
:1005C00005F0EA6A400EE96EEF500EE0010E016E92
:1005D000006A002EFED7012EFBD74A0E006E002EB9
:1005E000FED700D0EF2EF2D7120080A604D0010E65
:1005F000016E15D012D080A804D0020E016E0FD06B
:100600000CD080AA04D0030E016E09D006D09480CD
:1006100082A003D0040E016E02D0000E016E120003
:100620008E0E006E40C001F03FC002F0036A01521E
:1006300009E102C001F0026A080E005E015202E107
:10064000006A08D0D89001BE04D0023601360006F8
:10065000F9D7019E0DEF06F04C50D8B471D0006E62
:100660005050D8B46DD0002604E3810E002668E215
:1006700004D07F0E005E64E363E04DC054F051503F
:10068000541A4D8E518E4F505302F4CF56F04E50A7
:100690005202F4CF03F0F3CF55F05302F350562635
:1006A000F4505522000E03224F505202F3505626AA
:1006B000F4505522000E026A032202224D505302CA
:1006C000F3505526F4500322000E02224D505202E0
:1006D000F3500326F4500222000E016A01224F500B
:1006E0005102F3505526F4500322000E022201223B
:1006F0004E505102F3500326F4500222000E012204
:100700004D505102F3500226F4500122002A01BE3E
:1007100005D055360336023601360006000E55AEBA
:100720000AD0032A02220122015005E1025003E10E
:10073000035001E1002A54BE018E54AE019E04D044
:10074000006A016A026A036A12000900F6CF40F0EB
:10075000F7CF41F0196AF2BE198EF29EF5CF5DF027
:100760009EDD19BEF28E40C0F6FF41C0F7FF3F2E5E
:10077000ECD712004C50B6084C6E036A4DC050F0D6
:100780004D8ED8904D324E324F320332023201320A
:1007900000324C2EF6D750AE0BD0001E011E021EAA
:1007A000031E002AD8B4012AD8B4022AD8B4032AD6
:1007B00048EF04F0D8B203D0EA6A540EE96E006A3A
:1007C000016A026A036A546A556A566A576A535044
:1007D0005210511050102CE0200E586ED8904C360C
:1007E0004D364E364F3654365536563657365350AC
:1007F000575C08E15250565C05E15150555C02E1EE
:100800005050545C0FE35050545E5150D8A0513CAE
:10081000555E5250D8A0523C565E5350D8A0533C1F
:10082000575ED8800036013602360336582ED6D7AA
:1008300054C0EFFF55C0ECFF56C0ECFF57C0ECFFB3
:100840001200E950446E4350466E19E042C04FF02A
:1008500041C04EF040C04DF03FC04CF0536A526A68
:10086000200E516E820E506EF7DE03C042F002C0C1
:1008700041F001C040F000C03FF0462EE7D742C033
:100880004FF041C04EF040C04DF03FC04CF072D729
:1008900003C042F002C041F001C040F000C03FF090
:1008A00042AE0DD04406448A3F1E401E411E421EE9
:1008B0003F2AD8B4402AD8B4412AD8B4422A3B0EA1
:1008C0004B6E9A0E4A6ECA0E496E486A0A0E466E02
:1008D0004350D8B4442AD882EA6A3F0EE96E42C037
:1008E0004FF041C04EF040C04DF03FC04CF04BC007
:1008F00053F04AC052F049C051F048C050F05ADF9E
:10090000015000520FE14328465C0CE044500CE0DB
:100910000F0B465C01E04FE244BE4DD044BC04D016
:10092000200E3FD0200E441644AA12D0449A4350C1
:10093000D8A444060050446E196AF2BE198EF29E85
:100940002D0E5D6EACDC19BEF28E4450006E446A12
:100950004350465C10E10050446E196AF2BE198E95
:10096000F29E2E0E5D6E9BDC19BEF28E4450006E20
:10097000200E4416000E300E44AA13D0449A435061
:10098000D8A444060050446E196AF2BE198EF29E35
:100990002D0E5D6E84DC19BEF28E4450006E446AEA
:1009A000300E0026196AF2BE198EF29E00C05DF06C
:1009B00076DC19BEF28ED8924BC04FF04AC04EF092
:1009C00049C04DF048C04CF0536A526A516A0A0E51
:1009D000506EF0DE03C04BF002C04AF001C049F097
:1009E00000C048F0462E77D778EF06F04650016AEF
:1009F000455C03E245C000F00CD0006A080E476E6B
:100A0000453600364650005CD8B0006E0136472EA1
:100A1000F7D71200200E40A8300E416E3FC000F004
:100A20003FAE08D0001E002A00C03FF02D0E416EE0
:100A3000408E408001503FC045F0640E466ED6DFC8
:100A400000C03FF0300E0124426E3FC045F00A0E58
:100A5000466ECCDF300E0024446E300E0124436E0F
:100A600041C000F0300E425C04E0408240BE408451
:100A700012D041C042F0200E416E300E435C04E0C3
:100A8000408040BE408207D0D8A4408004E142C0EC
:100A900043F0200E426E40B405D040B20DD040B0BD
:100AA00015D01ED0196AF2BE198EF29E41C05DF0BB
:100AB0004FEC01F019BEF28E196AF2BE198EF29E49
:100AC00042C05DF04FEC01F019BEF28E196AF2BE21
:100AD000198EF29E43C05DF04FEC01F019BEF28E0C
:100AE000196AF2BE198EF29E44C05DF04FEC01F01F
:100AF00019BEF28E1200F86AD09E078E010E1D6E8E
:100B0000080E1E6E276A266AE70E256E950E246E65
:100B10004E0E286E020E296E100E2A6E2B6A326A55
:100B2000316AC150C00B0F09C16E070EB46E1F6A47
:100B3000600ED36ED350FF0E926E000E956ED19064
:100B4000870ED56EC00EF212F19C28C03FF029C06E
:100B500040F02AC041F0A0D4C150C00B0E09C16EB4
:100B6000C050C00B0709C06EC08EC280196AF2BEA9
:100B7000198EF29E0C0E5D6E4FEC01F019BEF28ED6
:100B8000196AF2BE198EF29E5E6A010E5F6E1EEC4D
:100B900001F019BEF28E3E0EF66E030EF76E196A64
:100BA000F2BE198EF29E70EC01F019BEF28E196A37
:100BB000F2BE198EF29E5E6A020E5F6E1EEC01F0AE
:100BC00019BEF28E4E0EF66E030EF76E196AF2BE65
:100BD000198EF29E70EC01F019BEF28E0C0E3F6E73
:100BE000FA0E406EEEDC3F2EFBD7FFDC012C94D0DA
:100BF000000E016EC250C30B0110C26E060E006ED5
:100C0000002EFED70000C282C2B2FED7C4CF03F0CE
:100C1000C3CF3FF0C4CF40F003D503C036F002C0CD
:100C200035F001C034F000C033F036C04FF035C0AD
:100C30004EF034C04DF033C04CF0BD0E536E1A0E62
:100C4000526E200E516E770E506E06DD03C03AF0E4
:100C500002C039F001C038F000C037F03AC03EF0B1
:100C600039C03DF038C03CF037C03BF093908A80EB
:100C7000196AF2BE198EF29E0C0E5D6E4FEC01F0F9
:100C800019BEF28E196AF2BE198EF29E5E6A010ECC
:100C90005F6E1EEC01F019BEF28E5E0EF66E030E54
:100CA000F76E196AF2BE198EF29E70EC01F019BE51
:100CB000F28E196AF2BE198EF29E5E6A020E5F6EA5
:100CC0001EEC01F019BEF28E700EF66E030EF76E7A
:100CD000030E3F6E3ADDC90EE96E3EC042F03DC0E4
:100CE00041F03CC040F03BC03FF0020E436EA9D53E
:100CF000780EF66E030EF76E070E3F6E26DD040EBD
:100D00003F6EFA0E406E5DDC3F2EFBD76EDC01506D
:100D1000020801E101D06CD768DC01500308D8A4B7
:100D2000F7D2196AF2BE198EF29E0C0E5D6E4FEC70
:100D300001F019BEF28E196AF2BE198EF29E5E6A39
:100D4000010E5F6E1EEC01F019BEF28E800EF66E83
:100D5000030EF76E196AF2BE198EF29E70EC01F066
:100D600019BEF28E196AF2BE198EF29E5E6A020EEA
:100D70005F6E1EEC01F019BEF28E900EF66E030E41
:100D8000F76E196AF2BE198EF29E70EC01F019BE70
:100D9000F28E2BDC012CFBD02C8025C0D7FF24C089
:100DA000D6FFD6502D6ED7CF2EF02F6A306AF28A3A
:100DB000F088196AF2BE198EF29E0C0E5D6E4FEC31
:100DC00001F019BEF28E196AF2BE198EF29E5E6AA9
:100DD000010E5F6E1EEC01F019BEF28EA20EF66ED1
:100DE000030EF76E196AF2BE198EF29E70EC01F0D6
:100DF00019BEF28E196AF2BE198EF29E5E6A020E5A
:100E00005F6E1EEC01F019BEF28EB20EF66E030E8E
:100E1000F76E196AF2BE198EF29E70EC01F019BEDF
:100E2000F28E2CA007D0F5EC02F00150020801E18F
:100E300001D0F7D72CB082D02CB23FD0196AF2BEC5
:100E4000198EF29E0C0E5D6E4FEC01F019BEF28E03
:100E5000196AF2BE198EF29E5E6A010E5F6E1EEC7A
:100E600001F019BEF28EBC0EF66E030EF76E050E83
:100E70003F6E6BDC2BC03FF0180E406ECBDD196A65
:100E8000F2BE198EF29E5E6A020E5F6E1EEC01F0DB
:100E900019BEF28EC40EF66E030EF76E196AF2BE1C
:100EA000198EF29E70EC01F019BEF28EF5EC02F094
:100EB0000150020801E101D0F9D72CA23FD0196AF4
:100EC000F2BE198EF29E0C0E5D6E4FEC01F019BE53
:100ED000F28E196AF2BE198EF29E5E6A010E5F6E84
:100EE0001EEC01F019BEF28ECE0EF66E030EF76EFA
:100EF000060E3F6E2ADC2BC03FF0180E406E8ADDD6
:100F0000196AF2BE198EF29E5E6A020E5F6E1EECC8
:100F100001F019BEF28ED80EF66E030EF76E196A46
:100F2000F2BE198EF29E70EC01F019BEF28EF5EC55
:100F300002F00150020801E101D0F9D7196AF2BEAE
:100F4000198EF29E0C0E5D6E4FEC01F019BEF28E02
:100F5000196AF2BE198EF29E5E6A020E5F6E1EEC78
:100F600001F019BEF28EE20EF66E030EF76E196AEC
:100F7000F2BE198EF29E70EC01F019BEF28E040ED4
:100F80003F6EFA0E406EE1EC02F03F2EFAD7F5EC20
:100F900002F00150020874E193948A84196AF2BE47
:100FA000198EF29E0C0E5D6E4FEC01F019BEF28EA2
:100FB000196AF2BE198EF29E5E6A010E5F6E1EEC19
:100FC00001F019BEF28EF20EF66E030EF76E196A7C
:100FD000F2BE198EF29E70EC01F019BEF28E196A03
:100FE000F2BE198EF29E5E6A020E5F6E1EEC01F07A
:100FF00019BEF28E040EF66E040EF76E196AF2BE7A
:10100000198EF29E70EC01F019BEF28E040E3F6E46
:10101000FA0E406EE1EC02F03F2EFAD7F5EC02F04A
:10102000015002082CE193948A94196AF2BE198E39
:10103000F29E0C0E5D6E4FEC01F019BEF28E196A35
:10104000F2BE198EF29E5E6A020E5F6E1EEC01F019
:1010500019BEF28E0E0EF66E040EF76E196AF2BE0F
:10106000198EF29E70EC01F019BEF28E040E3F6EE6
:10107000FA0E406EE1EC02F03F2EFAD701D08CD789
:101080000C0E3F6EFA0E406EE1EC02F03F2EFAD7E6
:10109000F5EC02F00150040874E193928A82196A17
:1010A000F2BE198EF29E0C0E5D6E4FEC01F019BE71
:1010B000F28E196AF2BE198EF29E5E6A010E5F6EA2
:1010C0001EEC01F019BEF28E1E0EF66E040EF76EC7
:1010D000196AF2BE198EF29E70EC01F019BEF28E02
:1010E000196AF2BE198EF29E5E6A020E5F6E1EECE7
:1010F00001F019BEF28E2E0EF66E040EF76E196A0E
:10110000F2BE198EF29E70EC01F019BEF28E040E42
:101110003F6EFA0E406EE1EC02F03F2EFAD7F5EC8E
:1011200002F0015002082CE193928A92196AF2BEF1
:10113000198EF29E0C0E5D6E4FEC01F019BEF28E10
:10114000196AF2BE198EF29E5E6A020E5F6E1EEC86
:1011500001F019BEF28E380EF66E040EF76E196AA3
:10116000F2BE198EF29E70EC01F019BEF28E040EE2
:101170003F6EFA0E406EE1EC02F03F2EFAD701D03E
:101180008CD7F5EC02F001500308D8A4C0D0196A3E
:10119000F2BE198EF29E0C0E5D6E4FEC01F019BE80
:1011A000F28E196AF2BE198EF29E5E6A010E5F6EB1
:1011B0001EEC01F019BEF28E480EF66E040EF76EAC
:1011C000196AF2BE198EF29E70EC01F019BEF28E11
:1011D000196AF2BE198EF29E5E6A020E5F6E1EECF6
:1011E00001F019BEF28E5A0EF66E040EF76E196AF1
:1011F000F2BE198EF29E70EC01F019BEF28E0C0E4A
:101200003F6EFA0E406EE1EC02F03F2EFAD7F5EC9D
:1012100002F00150040874E193948A84196AF2BEC2
:10122000198EF29E0C0E5D6E4FEC01F019BEF28E1F
:10123000196AF2BE198EF29E5E6A010E5F6E1EEC96
:1012400001F019BEF28E6C0EF66E040EF76E196A7E
:10125000F2BE198EF29E70EC01F019BEF28E196A80
:10126000F2BE198EF29E5E6A020E5F6E1EEC01F0F7
:1012700019BEF28E7E0EF66E040EF76E196AF2BE7D
:10128000198EF29E70EC01F019BEF28E040E3F6EC4
:10129000FA0E406EE1EC02F03F2EFAD7F5EC02F0C8
:1012A000015002082CE193948A94196AF2BE198EB7
:1012B000F29E0C0E5D6E4FEC01F019BEF28E196AB3
:1012C000F2BE198EF29E5E6A020E5F6E1EEC01F097
:1012D00019BEF28E880EF66E040EF76E196AF2BE13
:1012E000198EF29E70EC01F019BEF28E040E3F6E64
:1012F000FA0E406EE1EC02F03F2EFAD701D08CD707
:10130000F5EC02F00150030801E130D440D709D5D3
:061310002DD40ED40300F1
:020000040030CA
:0E0000003FC93E1E0087A1000FC00FE00F4059
:00000001FF
;PIC18F4550
;CRC=586B  CREATED="14-Dec-24 19:33"
