:04000000B9EF04F060
:08000800046ED8CF05F0E0CF33
:1000100006F00001E9CF0CF0EACF07F0E1CF08F0DD
:10002000E2CF09F0D9CF0AF0DACF0BF0F3CF12F01C
:10003000F4CF13F0FACF14F0F5CF15F0F6CF16F099
:10004000F7CF17F000C00EF001C00FF002C010F0A3
:1000500003C011F0F2AA30EF00F0F2B40DEF01F09E
:10006000F2A836EF00F0F2B25DEF00F00EC000F043
:100070000FC001F010C002F011C003F00CC0E9FF86
:1000800007C0EAFF078E08C0E1FF09C0E2FF0AC00F
:10009000D9FF0BC0DAFF12C0F3FF13C0F4FF14C086
:1000A000FAFF15C0F5FF16C0F6FF17C0F7FF0450A2
:1000B00006C0E0FF05C0D8FF1000010E2226F29214
:1000C000F29236EF00F08350006E00380F0B016E95
:1000D00012000F0E9514F009956E8C8400008C8030
:1000E0000000F1DF01C05AF08C9000008C8000000D
:1000F000EADF01C059F08C900F0E9514956E5A38B6
:10010000006EF00E001600505910016E12005A38A1
:10011000F00B006E0F0E8C1400108C6E00008C80A3
:1001200000D08C9012009590959295948C92D1DF8E
:1001300001C059F001BEFBD78C9257B08C820000F1
:100140008C9400008C905838596E0F0E591659C077
:100150005AF0DDDF58500F0B596E5A6ED8DF12007F
:10016000542C01D003D0400E556E01D0556A010EBB
:10017000535C552655508009566E576A586ED3DF2A
:100180001200EA6A530EE96EEF500EE0010E016EA6
:10019000006A002EFED7012EFBD74A0E006E002EFD
:1001A000FED700D0EF2EF2D712005250070A07E018
:1001B0000B0A0AE0060A10E0020A14E018D0010E49
:1001C000536E546ECDDF18D0576A010E586EABDFF8
:1001D000020E536ED6DF10D0010E536E020E546E17
:1001E000BFDF0AD0576A100E586E9DDF05D0010E92
:1001F000576E52C058F097DF12000900F5520CE01C
:10020000F6CF50F0F7CF51F0F5CF52F0CEDF50C01F
:10021000F6FF51C0F7FFF1D71200F298F29A23903F
:100220002250090802E2238201D02392F2940C0E9C
:10023000526EBBDF050E536E010E546E91DF500EF1
:10024000F66E020EF76ED9DFF29AF29436EF00F0F6
:1002500020554E4558504F00204D454E5520505288
:10026000494E434950414C0020313E4144363230E2
:1002700020333E4E455854002041443632302054FD
:10028000657374696E672E2E2E0020563A25302E27
:1002900032662E20323E5265740020313E353535AF
:1002A00020323E4C4D323234000020343E3734315F
:1002B00020333E5061672E5369672E002035353557
:1002C0002054657374696E672E2E2E0020323E56C0
:1002D0006F6C766572004D616C6F2025690020326D
:1002E0003E566F6C766572004275656E6F202569AB
:1002F000000020323E566F6C7665720020526567B2
:10030000726573616E646F2E2E2E0000204C4D328C
:1003100032342054657374696E672E2E2E0020329D
:100320003E566F6C76657200205265677265736128
:100330006E646F2E2E2E00002037343120546573EA
:1003400074696E672E2E2E0020323E566F6C7665D5
:10035000720020526567726573616E646F2E2E2E77
:10036000000020313E4C4D33353820323E4C4D3369
:100370003438000020343E4C4D33323420333E526A
:10038000455455524E00204C4D3332342054657341
:1003900074696E672E2E2E0020323E566F6C766585
:1003A000720020526567726573616E646F2E2E2E27
:1003B0000000280E376E0C0E386E010E396E060ED8
:1003C0003A6E8C908C928C940F0E9514956E95903D
:1003D00095929594196AF2BE198EF29E0F0E536E85
:1003E000D0DE19BEF28E010E366E3650030814E3CD
:1003F000196AF2BE198EF29E030E5A6E88DE19BE7D
:10040000F28E196AF2BE198EF29E050E536EB9DE97
:1004100019BEF28E362AE9D7196AF2BE198EF29EFB
:10042000020E5A6E74DE19BEF28E196AF2BE198E71
:10043000F29E050E536EA5DE19BEF28E366A365058
:10044000030813E3036A3650370FE96E000E0320EA
:10045000EA6EEFCF58F0196AF2BE198EF29E576A13
:1004600062DE19BEF28E362AEAD7DAEF04F080A6F1
:1004700004D0010E016E15D012D080A804D0020E57
:10048000016E0FD00CD080AA04D0030E016E09D0EB
:1004900006D0948082A003D0040E016E02D0000E1C
:1004A000016E12008E0E006E37C001F036C002F0F1
:1004B000036A015209E102C001F0026A080E005EFF
:1004C000015202E1006A08D0D89001BE04D0023681
:1004D00001360006F9D7019E42EF05F04350D8B42B
:1004E00071D0006E4750D8B46DD0002604E3810E61
:1004F000002668E204D07F0E005E64E363E044C03F
:100500004BF048504B1A448E488E46504A02F4CF66
:100510004DF045504902F4CF03F0F3CF4CF04A02BE
:10052000F3504D26F4504C22000E0322465049024F
:10053000F3504D26F4504C22000E026A0322022290
:1005400044504A02F3504C26F4500322000E02227B
:1005500044504902F3500326F4500222000E016A6F
:10056000012246504802F3504C26F4500322000E5C
:100570000222012245504802F3500326F450022281
:10058000000E012244504802F3500226F45001228A
:10059000002A01BE05D04C3603360236013600066D
:1005A000000E4CAE0AD0032A02220122015005E1BE
:1005B000025003E1035001E1002A4BBE018E4BAE15
:1005C000019E04D0006A016A026A036A12000900EF
:1005D000F6CF37F0F7CF38F0196AF2BE198EF29ED7
:1005E000F5CF52F0E2DD19BEF28E37C0F6FF38C00B
:1005F000F7FF362EECD712004350B608436E036A5D
:1006000044C047F0448ED8904432453246320332DB
:10061000023201320032432EF6D747AE0BD0001E15
:10062000011E021E031E002AD8B4012AD8B4022AD1
:10063000D8B4032A8AEF03F0D8B203D0EA6A4B0E8B
:10064000E96E006A016A026A036A4B6A4C6A4D6A83
:100650004E6A4A504910481047102CE0200E4F6E49
:10066000D89043364436453646364B364C364D36B2
:100670004E364A504E5C08E149504D5C05E1485009
:100680004C5C02E147504B5C0FE347504B5E4850D7
:10069000D8A0483C4C5E4950D8A0493C4D5E4A50D9
:1006A000D8A04A3C4E5ED88000360136023603366A
:1006B0004F2ED6D74BC0EFFF4CC0ECFF4DC0ECFF28
:1006C0004EC0ECFF1200E9503B6E3A503D6E19E00F
:1006D00039C046F038C045F037C044F036C043F06A
:1006E0004A6A496A200E486E820E476EF7DE03C0E2
:1006F00039F002C038F001C037F000C036F03D2EAE
:10070000E7D739C046F038C045F037C044F036C0AE
:1007100043F072D703C039F002C038F001C037F09F
:1007200000C036F039AE0DD03B063B8A361E371E70
:10073000381E391E362AD8B4372AD8B4382AD8B445
:10074000392A3B0E426E9A0E416ECA0E406E3F6AC7
:100750000A0E3D6E3A50D8B43B2AD882EA6A360E69
:10076000E96E39C046F038C045F037C044F036C0B5
:1007700043F042C04AF041C049F040C048F03FC099
:1007800047F05ADF015000520FE13A283D5C0CE07F
:100790003B500CE00F0B3D5C01E04FE23BBE4DD007
:1007A0003BBC04D0200E3FD0200E3B163BAA12D0FB
:1007B0003B9A3A50D8A43B0600503B6E196AF2BEF1
:1007C000198EF29E2D0E526EF0DC19BEF28E3B5049
:1007D000006E3B6A3A503D5C10E100503B6E196A76
:1007E000F2BE198EF29E2E0E526EDFDC19BEF28E14
:1007F0003B50006E200E3B16000E300E3BAA13D06D
:100800003B9A3A50D8A43B0600503B6E196AF2BEA0
:10081000198EF29E2D0E526EC8DC19BEF28E3B5020
:10082000006E3B6A300E0026196AF2BE198EF29EE7
:1008300000C052F0BADC19BEF28ED89242C046F027
:1008400041C045F040C044F03FC043F04A6A496AA5
:10085000486A0A0E476EF0DE03C042F002C041F063
:1008600001C040F000C03FF03D2E77D7ADEF05F05E
:100870003D50016A3C5C03E23CC000F00CD0006AD1
:10088000080E3E6E3C3600363D50005CD8B0006E1F
:1008900001363E2EF7D71200200E37A8300E386EE4
:1008A00036C000F036AE08D0001E002A00C036F078
:1008B0002D0E386E378E3780015036C03CF0640EF6
:1008C0003D6ED6DF00C036F0300E0124396E36C0E2
:1008D0003CF00A0E3D6ECCDF300E00243B6E300E35
:1008E00001243A6E38C000F0300E395C04E03782E3
:1008F00037BE378412D038C039F0200E386E300E33
:100900003A5C04E0378037BE378207D0D8A43780FE
:1009100004E139C03AF0200E396E37B405D037B251
:100920000CD037B013D01BD0196AF2BE198EF29ECC
:1009300038C052F03ADC19BEF28E196AF2BE198E36
:10094000F29E39C052F031DC19BEF28E196AF2BE45
:10095000198EF29E3AC052F028DC19BEF28E196A46
:10096000F2BE198EF29E3BC052F01FDC19BEF28E11
:100970001200F86AD09E078E600ED36ED350216AA3
:10098000206A1F6A1E6A226A296A286AC150C00B3F
:100990000F09C16E070EB46E600ED36ED350FF0EFA
:1009A000926E000E956ED190840ED56EC00EF2122E
:1009B000F19CFFD4C150C00B0E09C16EC050C00BDA
:1009C0000709C06EC08EC280196AF2BE198EF29EEF
:1009D0000C0E526ED5EC00F019BEF28E196AF2BE02
:1009E000198EF29E536A010E546EB0EC00F019BEDF
:1009F000F28E580EF66E020EF76E196AF2BE198E5E
:100A0000F29EFDEC00F019BEF28E196AF2BE198E4C
:100A1000F29E536A020E546EB0EC00F019BEF28ED4
:100A2000680EF66E020EF76E196AF2BE198EF29E0D
:100A3000FDEC00F019BEF28E0C0E366E196AF2BE95
:100A4000198EF29EFA0E536EC1EC00F019BEF28EB2
:100A5000362EF4D70CDD012C9BD0000E016EC25057
:100A6000C30B0110C26E060E006E002EFED70000F2
:100A7000C282C2B2FED7C4CF03F0C3CF36F0C4CF18
:100A800037F010D503C02DF002C02CF001C02BF0C0
:100A900000C02AF02DC046F02CC045F02BC044F019
:100AA0002AC043F0BD0E4A6E1A0E496E200E486EE3
:100AB000770E476E13DD03C031F002C030F001C085
:100AC0002FF000C02EF031C035F030C034F02FC010
:100AD00033F02EC032F093908A80196AF2BE198EDC
:100AE000F29E0C0E526ED5EC00F019BEF28E196A11
:100AF000F2BE198EF29E536A010E546EB0EC00F0F5
:100B000019BEF28E780EF66E020EF76E196AF2BEFC
:100B1000198EF29EFDEC00F019BEF28E196AF2BE3B
:100B2000198EF29E536A020E546EB0EC00F019BE9C
:100B3000F28E8A0EF66E020EF76E030E366E47DDEB
:100B4000C90EE96E35C039F034C038F033C037F023
:100B500032C036F0020E3A6EB6D5920EF66E020E26
:100B6000F76E070E366E33DD040E366E196AF2BE6E
:100B7000198EF29EFA0E536EC1EC00F019BEF28E81
:100B8000362EF4D774DC0150020801E101D065D79C
:100B90006EDC01500308D8A431D3196AF2BE198E55
:100BA000F29E0C0E526ED5EC00F019BEF28E196A50
:100BB000F2BE198EF29E536A010E546EB0EC00F034
:100BC00019BEF28E9A0EF66E020EF76E196AF2BE1A
:100BD000198EF29EFDEC00F019BEF28E196AF2BE7B
:100BE000198EF29E536A020E546EB0EC00F019BEDC
:100BF000F28EAA0EF66E020EF76E196AF2BE198E0A
:100C0000F29EFDEC00F019BEF28E31DC012C01D118
:100C100023801FC0D7FF1EC0D6FFD650246ED7CF6B
:100C200025F0266A276AF28AF288196AF2BE198EBE
:100C3000F29E0C0E526ED5EC00F019BEF28E196ABF
:100C4000F2BE198EF29E536A010E546EB0EC00F0A3
:100C500019BEF28EBC0EF66E020EF76E196AF2BE67
:100C6000198EF29EFDEC00F019BEF28E196AF2BEEA
:100C7000198EF29E536A020E546EB0EC00F019BE4B
:100C8000F28ECC0EF66E020EF76E196AF2BE198E57
:100C9000F29EFDEC00F019BEF28E23A007D037ECD7
:100CA00002F00150020801E101D0F7D723B082D051
:100CB00023B23FD0196AF2BE198EF29E0C0E526E0C
:100CC000D5EC00F019BEF28E196AF2BE198EF29EB2
:100CD000536A010E546EB0EC00F019BEF28ED60EBF
:100CE000F66E020EF76E050E366E71DC22C036F01F
:100CF000180E376ED1DD196AF2BE198EF29E536A54
:100D0000020E546EB0EC00F019BEF28EDE0EF66EDE
:100D1000020EF76E196AF2BE198EF29EFDEC00F01B
:100D200019BEF28E37EC02F00150020801E101D049
:100D3000F9D723A23FD0196AF2BE198EF29E0C0E8B
:100D4000526ED5EC00F019BEF28E196AF2BE198E01
:100D5000F29E536A010E546EB0EC00F019BEF28E92
:100D6000E80EF66E020EF76E060E366E30DC22C00E
:100D700036F0180E376E90DD196AF2BE198EF29EAB
:100D8000536A020E546EB0EC00F019BEF28EF20EF1
:100D9000F66E020EF76E196AF2BE198EF29EFDEC27
:100DA00000F019BEF28E37EC02F00150020801E1AA
:100DB00001D0F9D7196AF2BE198EF29E0C0E526E4E
:100DC000D5EC00F019BEF28E196AF2BE198EF29EB1
:100DD000536A020E546EB0EC00F019BEF28EFC0E97
:100DE000F66E020EF76E196AF2BE198EF29EFDECD7
:100DF00000F019BEF28E040E366E196AF2BE198E1C
:100E0000F29EFA0E536EC1EC00F019BEF28E362E31
:100E1000F4D737EC02F001500208D8A480D09394A4
:100E20008A84196AF2BE198EF29E0C0E526ED5ECAF
:100E300000F019BEF28E196AF2BE198EF29E536A44
:100E4000010E546EB0EC00F019BEF28E0C0EF66E70
:100E5000030EF76E196AF2BE198EF29EFDEC00F0D9
:100E600019BEF28E196AF2BE198EF29E536A020EF4
:100E7000546EB0EC00F019BEF28E1E0EF66E030E2C
:100E8000F76E196AF2BE198EF29EFDEC00F019BEE3
:100E9000F28E040E366E196AF2BE198EF29EFA0EAA
:100EA000536EC1EC00F019BEF28E362EF4D737EC3B
:100EB00002F00150020832E193948A94196AF2BE5A
:100EC000198EF29E0C0E526ED5EC00F019BEF28E09
:100ED000196AF2BE198EF29E536A020E546EB0EC7D
:100EE00000F019BEF28E280EF66E030EF76E196A28
:100EF000F2BE198EF29EFDEC00F019BEF28E040EC9
:100F0000366E196AF2BE198EF29EFA0E536EC1EC5D
:100F100000F019BEF28E362EF4D701D080D70C0E19
:100F2000366E196AF2BE198EF29EFA0E536EC1EC3D
:100F300000F019BEF28E362EF4D737EC02F00150D5
:100F40000408D8A480D093928A82196AF2BE198EBE
:100F5000F29E0C0E526ED5EC00F019BEF28E196A9C
:100F6000F2BE198EF29E536A010E546EB0EC00F080
:100F700019BEF28E380EF66E030EF76E196AF2BEC7
:100F8000198EF29EFDEC00F019BEF28E196AF2BEC7
:100F9000198EF29E536A020E546EB0EC00F019BE28
:100FA000F28E480EF66E030EF76E196AF2BE198EB7
:100FB000F29EFDEC00F019BEF28E040E366E196A38
:100FC000F2BE198EF29EFA0E536EC1EC00F019BEFD
:100FD000F28E362EF4D737EC02F00150020832E1DF
:100FE00093928A92196AF2BE198EF29E0C0E526E7C
:100FF000D5EC00F019BEF28E196AF2BE198EF29E7F
:10100000536A020E546EB0EC00F019BEF28E520E0E
:10101000F66E030EF76E196AF2BE198EF29EFDECA3
:1010200000F019BEF28E040E366E196AF2BE198EE9
:10103000F29EFA0E536EC1EC00F019BEF28E362EFF
:10104000F4D701D080D737EC02F001500308D8A4C0
:10105000D4D0196AF2BE198EF29E0C0E526ED5ECE7
:1010600000F019BEF28E196AF2BE198EF29E536A12
:10107000010E546EB0EC00F019BEF28E620EF66EE8
:10108000030EF76E196AF2BE198EF29EFDEC00F0A7
:1010900019BEF28E196AF2BE198EF29E536A020EC2
:1010A000546EB0EC00F019BEF28E740EF66E030EA4
:1010B000F76E196AF2BE198EF29EFDEC00F019BEB1
:1010C000F28E0C0E366E196AF2BE198EF29EFA0E70
:1010D000536EC1EC00F019BEF28E362EF4D737EC09
:1010E00002F001500408D8A480D093948A84196A2D
:1010F000F2BE198EF29E0C0E526ED5EC00F019BEA7
:10110000F28E196AF2BE198EF29E536A010E546E67
:10111000B0EC00F019BEF28E860EF66E030EF76E7E
:10112000196AF2BE198EF29EFDEC00F019BEF28E25
:10113000196AF2BE198EF29E536A020E546EB0EC1A
:1011400000F019BEF28E980EF66E030EF76E196A55
:10115000F2BE198EF29EFDEC00F019BEF28E040E66
:10116000366E196AF2BE198EF29EFA0E536EC1ECFB
:1011700000F019BEF28E362EF4D737EC02F0015093
:10118000020832E193948A94196AF2BE198EF29E93
:101190000C0E526ED5EC00F019BEF28E196AF2BE3A
:1011A000198EF29E536A020E546EB0EC00F019BE16
:1011B000F28EA20EF66E030EF76E196AF2BE198E4B
:1011C000F29EFDEC00F019BEF28E040E366E196A26
:1011D000F2BE198EF29EFA0E536EC1EC00F019BEEB
:1011E000F28E362EF4D701D080D737EC02F00150C2
:1011F000030802E1E4EF04F02CD7CFD4E4EF04F0CD
:06120000CCEF04F0030036
:020000040030CA
:0E00000027C93E1E0087A1000FC00FE00F4071
:00000001FF
;PIC18F4550
;CRC=25F5  CREATED="14-Dec-24 14:33"
