:0400000063EF05F0B5
:08000800046ED8CF05F0E0CF33
:1000100006F00001E9CF0CF0EACF07F0E1CF08F0DD
:10002000E2CF09F0D9CF0AF0DACF0BF0F3CF12F01C
:10003000F4CF13F0FACF14F0F5CF15F0F6CF16F099
:10004000F7CF17F000C00EF001C00FF002C010F0A3
:1000500003C011F0F2AA30EF00F0F2B46DEF00F03F
:10006000F0A836EF00F0F0B267EF00F00EC000F03D
:100070000FC001F010C002F011C003F00CC0E9FF86
:1000800007C0EAFF078E08C0E1FF09C0E2FF0AC00F
:10009000D9FF0BC0DAFF12C0F3FF13C0F4FF14C086
:1000A000FAFF15C0F5FF16C0F6FF17C0F7FF0450A2
:1000B00006C0E0FF05C0D8FF1000F76ACA0FF66E51
:1000C000000EF7220900F5501200280C0106010E5F
:1000D0002A26F092F09236EF00F0F098F29A2B90E8
:1000E0002A50090802E22B8201D02B92F294F2945A
:1000F00036EF00F0204D454E55205052494E4349B1
:1001000050414C0020313E414436323020333E4E87
:100110004558540020414436323020546573746988
:100120006E672E2E2E0020563A25302E32662E2057
:10013000323E52657400204D454E55205052494E76
:10014000434950414C0020313E4144363230203347
:100150003E4E4558540020313E35353520323E4C18
:100160004D323234000020343E37343120333E509B
:1001700061672E5369672E0020353535205465732D
:1001800074696E672E2E2E0020323E566F6C766597
:10019000720020313E35353520323E4C4D323234FE
:1001A000000020343E37343120333E5061672E53F7
:1001B00069672E004D616C6F2025690020323E5624
:1001C0006F6C7665720020313E35353520323E4CFD
:1001D0004D323234000020343E37343120333E502B
:1001E00061672E5369672E004275656E6F20256921
:1001F000000020323E566F6C7665720020313E352D
:10020000353520323E4C4D323234000020343E37FA
:10021000343120333E5061672E5369672E002052DF
:100220006567726573616E646F2E2E2E000020313B
:100230003E35353520323E4C4D32323400002034CC
:100240003E37343120333E5061672E5369672E00AC
:10025000204C4D3232342054657374696E672E2EF3
:100260002E0020323E566F6C766572002052656714
:10027000726573616E646F2E2E2E000020313E3544
:10028000353520323E4C4D323234000020343E377A
:10029000343120333E5061672E5369672E0020377A
:1002A00034312054657374696E672E2E2E0020320F
:1002B0003E566F6C76657200205265677265736199
:1002C0006E646F2E2E2E000020313E3535352032E3
:1002D0003E4C4D323234000020343E37343120332E
:1002E0003E5061672E5369672E0020313E4C4D33DE
:1002F000353820323E4C4D333438000020343E4CEB
:100300004D33323420333E52455455524E00204C2A
:100310004D3332342054657374696E672E2E2E006F
:1003200020323E566F6C76657200205265677265AA
:1003300073616E646F2E2E2E0000EA6A4C0EE96E19
:10034000EF500EE0010E016E006A002EFED7012E66
:10035000FBD74A0E006E002EFED700D0EF2EF2D74C
:100360001200080E016E00008A9293920000593626
:100370008A90D8B09380D8A09390938281A2FED720
:10038000012EF1D700008A92939200009380000022
:100390000000938281A2FED7016A000081B0018033
:1003A0008A9293928A90939012005750000A03E029
:1003B000010A21E041D05638006EF00E00160050C0
:1003C0001D10586E596ECDDF00005638006EF00ECD
:1003D0000016005004091D10586E596EC2DF00D07F
:1003E0005638006EF00E00160050FB0B1D10586EB4
:1003F000596EB7DF21D05638006EF00E001600504F
:1004000001091D10586E596EACDF00005638006EA1
:10041000F00E00160050010904091D10586E596EA7
:10042000A0DF00D05638006EF00E00160050010913
:100430001D10586E596E95DF120093800000938254
:1004400000008A90939000008A92939219C059F00C
:1004500088DF5338556E0F0E551655C056F054C0F0
:1004600057F0A3DF53500F0B556E566E54C057F024
:100470009CDF93900000938281A2FED7000000D001
:100480000000938000001200010E536E546AD5DF05
:10049000020E4C6E52DF010E1C6E12003EC019F0AF
:1004A00040C01AF03FC01BF0F29CF29EF2BEFDD796
:1004B000320E4C6E42DF93800000938200008A90DF
:1004C000939000008A92939219C059F04ADF566ABD
:1004D000576A6BDF0F0E4C6E30DF010E416E4150DC
:1004E000030809E3030E566E576A5FDF050E4C6E74
:1004F00024DF412AF4D7020E566E576A56DF050EE6
:100500004C6E1BDF93900000938281A2FED7000007
:1005100000D0000093800000416A415003080CE3C2
:10052000036A4150CADD426E536E546A86DF050E7F
:100530004C6E03DF412AF1D7A7DFC00EF21294EF11
:1005400005F04D501A5C03E21AC04EF002D04DC0C7
:100550004EF04E50010A07E0030A07E0010A08E0E6
:10056000070A09E00BD0506A0AD0400E506E07D03F
:10057000140E506E04D0540E506E01D0506A4C5080
:100580001B5C03E21BC04FF002D04CC04FF0010EC9
:100590004F5C5024516E51508009526E536E546A14
:1005A0004CDF12004B500C0A05E0060A05E0020A77
:1005B0000FE013D069DF16D01C2A1C501A5C02E22F
:1005C000010E1C6E010E4C6E1CC04DF0BADF0AD03D
:1005D000100E536E546A31DF05D04BC053F0010E3C
:1005E000546E2BDF12000900F5520CE0F6CF3EF0FE
:1005F000F7CF3FF0F5CF4BF0D5DF3EC0F6FF3FC061
:10060000F7FFF1D71200EA6A3F0EE96EEF500EE0F5
:10061000010E016E006A002EFED7012EFBD74A0E96
:10062000006E002EFED700D0EF2EF2D7120080A66B
:1006300004D0010E016E15D012D080A804D0020E95
:10064000016E0FD00CD080AA04D0030E016E09D029
:1006500006D0948082A003D0040E016E02D0000E5A
:10066000016E12008E0E006E3FC001F03EC002F01F
:10067000036A015209E102C001F0026A080E005E3D
:10068000015202E1006A08D0D89001BE04D00236BF
:1006900001360006F9D7019ED2EF05F04B50D8B4D1
:1006A00071D0006E4F50D8B46DD0002604E3810E97
:1006B000002668E204D07F0E005E64E363E04CC075
:1006C00053F05050531A4C8E508E4E505202F4CF6D
:1006D00055F04D505102F4CF03F0F3CF54F05202D5
:1006E000F3505526F4505422000E03224E5051026E
:1006F000F3505526F4505422000E026A03220222BF
:100700004C505202F3505426F4500322000E0222A1
:100710004C505102F3500326F4500222000E016A9D
:1007200001224E505002F3505426F4500322000E82
:10073000022201224D505002F3500326F4500222AF
:10074000000E01224C505002F3500226F4500122B8
:10075000002A01BE05D054360336023601360006A3
:10076000000E54AE0AD0032A02220122015005E1F4
:10077000025003E1035001E1002A53BE018E53AE43
:10078000019E04D0006A016A026A036A120009002D
:10079000F6CF3FF0F7CF40F0F5CF4BF003DF3FC08F
:1007A000F6FF40C0F7FF3E2EF2D712004B50B608BE
:1007B0004B6E036A4CC04FF04C8ED8904C324D3289
:1007C0004E3203320232013200324B2EF6D74FAE98
:1007D0000BD0001E011E021E031E002AD8B4012ADF
:1007E000D8B4022AD8B4032A64EF04F0D8B203D0F4
:1007F000EA6A530EE96E006A016A026A036A536A82
:10080000546A556A566A5250511050104F102CE0DD
:10081000200E576ED8904B364C364D364E365336EA
:100820005436553656365250565C08E15150555C98
:1008300005E15050545C02E14F50535C0FE34F50C0
:10084000535E5050D8A0503C545E5150D8A0513CFB
:10085000555E5250D8A0523C565ED88000360136C4
:1008600002360336572ED6D753C0EFFF54C0ECFFE5
:1008700055C0ECFF56C0ECFF1200E950436E4250E9
:10088000456E19E041C04EF040C04DF03FC04CF005
:100890003EC04BF0526A516A200E506E820E4F6E6F
:1008A000FDDE03C041F002C040F001C03FF000C0D7
:1008B0003EF0452EE7D741C04EF040C04DF03FC05E
:1008C0004CF03EC04BF072D703C041F002C040F084
:1008D00001C03FF000C03EF041AE0DD04306438A58
:1008E0003E1E3F1E401E411E3E2AD8B43F2AD8B4A9
:1008F000402AD8B4412A3B0E4A6E9A0E496ECA0E5F
:10090000486E476A0A0E456E4250D8B4432AD882D0
:10091000EA6A3E0EE96E41C04EF040C04DF03FC065
:100920004CF03EC04BF04AC052F049C051F048C0B4
:1009300050F047C04FF05ADF015000520FE14228FB
:10094000455C0CE043500CE00F0B455C01E037E2E6
:1009500043BE35D043BC04D0200E2DD0200E43160C
:1009600043AA0CD0439A4250D8A443060050436E89
:100970002D0E4B6E17DE4350006E436A4250455CAD
:100980000AE10050436E2E0E4B6E0CDE4350006E9B
:10099000200E4316000E300E43AA0DD0439A42504B
:1009A000D8A443060050436E2D0E4B6EFBDD435022
:1009B000006E436A300E002600C04BF0F3DDD89283
:1009C0004AC04EF049C04DF048C04CF047C04BF013
:1009D000526A516A506A0A0E4F6E08DF03C04AF02D
:1009E00002C049F001C048F000C047F0452E8FD743
:1009F00021EF06F04550016A445C03E244C000F078
:100A00000CD0006A080E466E443600364550005C35
:100A1000D8B0006E0136462EF7D71200200E3FA840
:100A2000300E406E3EC000F03EAE08D0001E002AE0
:100A300000C03EF02D0E406E3F8E3F8001503EC004
:100A400044F0640E456ED6DF00C03EF0300E012447
:100A5000416E3EC044F00A0E456ECCDF300E0024DD
:100A6000436E300E0124426E40C000F0300E415CF7
:100A700004E03F823FBE3F8412D040C041F0200ED0
:100A8000406E300E425C04E03F803FBE3F8207D0A4
:100A9000D8A43F8004E141C042F0200E416E3FB433
:100AA00005D03FB206D03FB007D009D040C04BF0D0
:100AB00079DD41C04BF076DD42C04BF073DD43C0C1
:100AC0004BF070DD1200F86AD09E078E010E1C6E8E
:100AD000080E1D6E266A256AF90E246E9B0E236E83
:100AE0004E0E276E020E286E100E296E2A6A316A8B
:100AF000306AC150C00B0F09C16E070EB46E1E6A7A
:100B0000600ED36ED350FF0E926E000E956ED19094
:100B1000870ED56EC00EF212F19C27C03EF028C0A1
:100B20003FF029C040F0BAD4C150C00B0E09C16ECD
:100B3000C050C00B0709C06EC08EC2800C0E4B6E39
:100B400031DD4C6A010E4D6EFCDCF40EF66E000ECB
:100B5000F76E49DD4C6A020E4D6EF3DC040EF66E44
:100B6000010EF76E40DD040E3E6EFA0E3F6E4BDD59
:100B70003E2EFBD75CDD012C94D0000E016EC250DE
:100B8000C30B0110C26E060E006E002EFED70000D1
:100B9000C282C2B2FED7C4CF03F0C3CF3EF0C4CFEF
:100BA0003FF060D503C035F002C034F001C033F02F
:100BB00000C032F035C04EF034C04DF033C04CF0C0
:100BC00032C04BF0BD0E526E1A0E516E200E506E9A
:100BD000770E4F6E63DD03C039F002C038F001C0FC
:100BE00037F000C036F039C03DF038C03CF037C0B7
:100BF0003BF036C03AF093908A800C0E4B6ED2DCFC
:100C00004C6A010E4D6E9DDC140EF66E010EF76EF1
:100C1000EADC4C6A020E4D6E94DC260EF66E010E76
:100C2000F76E030E3E6EB3DDC90EE96E3DC041F0B6
:100C30003CC040F03BC03FF03AC03EF0020E426E76
:100C40001CD62E0EF66E010EF76E070E3E6E9FDD61
:100C5000020E3E6EFA0E3F6ED6DC3E2EFBD7E7DC70
:100C6000015002081DE10C0E4B6E9CDC4C6A010E1B
:100C70004D6E67DC360EF66E010EF76EB4DC4C6A14
:100C8000020E4D6E5EDC460EF66E010EF76EABDCAC
:100C9000040E3E6EFA0E3F6EB6DC3E2EFBD701D040
:100CA0006CD7C5DC01500308D8A455D20C0E4B6E8E
:100CB00079DC4C6A010E4D6E44DC560EF66E010E68
:100CC000F76E91DC4C6A020E4D6E3BDC660EF66EE2
:100CD000010EF76E88DC040E3E6EFA0E3F6E93DC5A
:100CE0003E2EFBD7A4DC012CF8D02B8024C0D7FFEC
:100CF00023C0D6FFD6502C6ED7CF2DF02E6A2F6A88
:100D0000F28AF0880C0E4B6E4DDC4C6A010E4D6E73
:100D100018DC780EF66E010EF76E65DC4C6A020E7A
:100D20004D6E0FDC880EF66E010EF76E5CDC2BA0AC
:100D30001DD07DDC0150020818E10C0E4B6E32DC38
:100D40004C6A010E4D6EA1EC02F0920EF66E010E91
:100D5000F76E49DC4C6A020E4D6EA1EC02F0A20E59
:100D6000F66E010EF76E3FDC01D0E1D72BB082D0DA
:100D70002BB23DD00C0E4B6E15DC4C6A010E4D6E45
:100D8000A1EC02F0B40EF66E010EF76E050E3E6E8B
:100D9000FEDC2AC03EF0180E3F6E40DE4C6A020EAA
:100DA0004D6EA1EC02F0BC0EF66E010EF76E1BDC70
:100DB0003EDC015002081AE10C0E4B6ED2EC02F040
:100DC0004C6A010E4D6EA1EC02F0C60EF66E010EDD
:100DD000F76E09DC4C6A020E4D6EA1EC02F0D60EE5
:100DE000F66E010EF76EF3EC02F001D0E1D72BA204
:100DF00041D00C0E4B6ED2EC02F04C6A010E4D6EDF
:100E0000A1EC02F0E80EF66E010EF76E060E3E6ED5
:100E1000BEDC2AC03EF0180E3F6E00DE4C6A020EA9
:100E20004D6EA1EC02F0F20EF66E010EF76EF3ECD1
:100E300002F017EC03F0015002081BE10C0E4B6EA0
:100E4000D2EC02F04C6A010E4D6EA1EC02F0FC0EE9
:100E5000F66E010EF76EF3EC02F04C6A020E4D6E68
:100E6000A1EC02F00C0EF66E020EF76EF3EC02F03F
:100E700001D0DFD72B902A6A0C0E4B6ED2EC02F019
:100E80004C6A020E4D6EA1EC02F01E0EF66E020EC2
:100E9000F76EF3EC02F00C0E4B6ED2EC02F04C6AE3
:100EA000010E4D6EA1EC02F02E0EF66E020EF76EE4
:100EB000F3EC02F04C6A020E4D6EA1EC02F03E0E15
:100EC000F66E020EF76EF3EC02F0040E3E6EFA0EB2
:100ED0003F6E03EC03F03E2EFAD717EC03F00150FF
:100EE00002085EE193948A840C0E4B6ED2EC02F001
:100EF0004C6A010E4D6EA1EC02F0500EF66E020E21
:100F0000F76EF3EC02F04C6A020E4D6EA1EC02F0AB
:100F1000620EF66E020EF76EF3EC02F0040E3E6EF9
:100F2000FA0E3F6E03EC03F03E2EFAD717EC03F0F7
:100F30000150020834E193948A940C0E4B6ED2EC6B
:100F400002F04C6A020E4D6EA1EC02F06C0EF66ED1
:100F5000020EF76EF3EC02F0040E3E6EFA0E3F6ED8
:100F600003EC03F03E2EFAD70C0E4B6ED2EC02F0DF
:100F70004C6A010E4D6EA1EC02F07C0EF66E020E74
:100F8000F76EF3EC02F04C6A020E4D6EA1EC02F02B
:100F90008C0EF66E020EF76EF3EC02F001D0A2D7C3
:100FA00017EC03F0015004085EE193928A820C0E64
:100FB0004B6ED2EC02F04C6A010E4D6EA1EC02F0C9
:100FC0009E0EF66E020EF76EF3EC02F04C6A020E05
:100FD0004D6EA1EC02F0AE0EF66E020EF76EF3EC63
:100FE00002F0040E3E6EFA0E3F6E03EC03F03E2E4E
:100FF000FAD717EC03F00150020834E193928A9279
:101000000C0E4B6ED2EC02F04C6A020E4D6EA1EC4F
:1010100002F0B80EF66E020EF76EF3EC02F0040E5C
:101020003E6EFA0E3F6E03EC03F03E2EFAD70C0E26
:101030004B6ED2EC02F04C6A010E4D6EA1EC02F048
:10104000C80EF66E020EF76EF3EC02F04C6A020E5A
:101050004D6EA1EC02F0D80EF66E020EF76EF3ECB8
:1010600002F001D0A2D717EC03F00150030872E19F
:101070000C0E4B6ED2EC02F04C6A010E4D6EA1ECE0
:1010800002F0EA0EF66E020EF76EF3EC02F04C6A16
:10109000020E4D6EA1EC02F0FC0EF66E020EF76E23
:1010A000F3EC02F00C0E3E6EFA0E3F6E03EC03F012
:1010B0003E2EFAD717EC03F00150040844E1939454
:1010C0008A840C0E4B6ED2EC02F04C6A010E4D6E0F
:1010D000A1EC02F00E0EF66E030EF76EF3EC02F0CA
:1010E0004C6A020E4D6EA1EC02F0200EF66E030E5D
:1010F000F76EF3EC02F0040E3E6EFA0E3F6E03EC58
:1011000003F03E2EFAD717EC03F0015002081AE163
:1011100093948A940C0E4B6ED2EC02F04C6A020E41
:101120004D6EA1EC02F02A0EF66E030EF76EF3EC94
:1011300002F0040E3E6EFA0E3F6E03EC03F03E2EFC
:10114000FAD701D0BCD717EC03F00150030801E136
:0C115000F5D48ED7C7D50ED5F1D403001E
:020000040030CA
:0E0000003FC93E1E0087A1000FC00FE00F4059
:00000001FF
;PIC18F4550
;CRC=6A3E  CREATED="14-Dec-24 21:05"
