:040000002BEF07F0EB
:08000800046ED8CF05F0E0CF33
:1000100006F00001E9CF0CF0EACF07F0E1CF08F0DD
:10002000E2CF09F0D9CF0AF0DACF0BF0F3CF12F01C
:10003000F4CF13F0FACF14F0F5CF15F0F6CF16F099
:10004000F7CF17F000C00EF001C00FF002C010F0A3
:1000500003C011F0F2AA30EF00F0F2B46DEF00F03F
:10006000F0A836EF00F0F0B267EF00F00EC000F03D
:100070000FC001F010C002F011C003F00CC0E9FF86
:1000800007C0EAFF078E08C0E1FF09C0E2FF0AC00F
:10009000D9FF0BC0DAFF12C0F3FF13C0F4FF14C086
:1000A000FAFF15C0F5FF16C0F6FF17C0F7FF0450A2
:1000B00006C0E0FF05C0D8FF1000F76ACA0FF66E51
:1000C000000EF7220900F5501200280C0106010E5F
:1000D0002A26F092F09236EF00F0F098F29A2B90E8
:1000E0002A50090802E22B8201D02B92F294F2945A
:1000F00036EF00F0204D454E55205052494E4349B1
:1001000050414C0020313E414436323020333E4E87
:100110004558540020414436323020546573746988
:100120006E672E2E2E0020563A25302E32662E2057
:10013000323E52657400204D454E55205052494E76
:10014000434950414C0020313E4144363230203347
:100150003E4E4558540020313E35353520323E4C18
:100160004D323234000020343E37343120333E509B
:1001700061672E5369672E0020353535205465732D
:1001800074696E672E2E2E0020323E566F6C766597
:10019000720020313E35353520323E4C4D323234FE
:1001A000000020343E37343120333E5061672E53F7
:1001B00069672E004D616C6F2025690020323E5624
:1001C0006F6C7665720020313E35353520323E4CFD
:1001D0004D323234000020343E37343120333E502B
:1001E00061672E5369672E004275656E6F20256921
:1001F000000020323E566F6C7665720020313E352D
:10020000353520323E4C4D323234000020343E37FA
:10021000343120333E5061672E5369672E002052DF
:100220006567726573616E646F2E2E2E000020313B
:100230003E35353520323E4C4D32323400002034CC
:100240003E37343120333E5061672E5369672E00AC
:10025000204C4D3232342054657374696E672E2EF3
:100260002E0020323E566F6C7665720020416D7014
:100270004F702D31204275656E6F2100204C4D323C
:1002800032342054657374696E672E2E2E0020411F
:100290006D704F702D32204275656E6F2100204CBD
:1002A0004D3232342054657374696E672E2E2E00E1
:1002B00020416D704F702D33204275656E6F2100A7
:1002C000204C4D3232342054657374696E672E2E83
:1002D0002E0020416D704F702D34204275656E6F79
:1002E0002100204C4D3232342054657374696E679E
:1002F0002E2E2E00204275656E6F7320256900003A
:1003000020526567726573616E646F2E2E00203116
:100310003E35353520323E4C4D32323400002034EB
:100320003E37343120333E5061672E5369672E00CB
:10033000203734312054657374696E672E2E2E0079
:1003400020323E566F6C7665720020416D704F70A2
:10035000204275656E6F210020526567726573617A
:100360006E646F2E2E2E000020313E353535203242
:100370003E4C4D323234000020343E37343120338D
:100380003E5061672E5369672E0020526567726583
:1003900073616E646F2E2E2E000020313E35353590
:1003A00020323E4C4D323234000020343E3734315E
:1003B00020333E5061672E5369672E0020313E4C3A
:1003C0004D33353820323E4C4D3334380000203424
:1003D0003E4C4D33323420333E5061672E536967B3
:1003E0002E00204C4D3335382054657374696E6788
:1003F0002E2E2E0020323E566F6C76657200204104
:100400006D704F702D31204275656E6F2100204C4C
:100410004D3335382054657374696E672E2E2E0067
:1004200020416D704F702D32204275656E6F210036
:10043000204C4D3335382054657374696E672E2E09
:100440002E00204275656E6F7320256900002052D2
:100450006567726573616E646F2E2E0020313E4CAD
:100460004D33353820323E4C4D3334380000203483
:100470003E4C4D33323420333E5061672E53696712
:100480002E0020526567726573616E646F2E2E2E8A
:10049000000020313E4C4D33353820323E4C4D3338
:1004A0003438000020343E4C4D33323420333E503B
:1004B00061672E5369672E00204C4D33323420542F
:1004C000657374696E672E2E2E0020323E566F6C57
:1004D0007665720020416D704F702D312042756538
:1004E0006E6F2100204C4D33323420546573746993
:1004F0006E672E2E2E0020416D704F702D322042DF
:1005000075656E6F2100204C4D3332342054657375
:1005100074696E672E2E2E0020416D704F702D3342
:10052000204275656E6F2100204C4D3332342054CB
:10053000657374696E672E2E2E0020416D704F70AA
:100540002D34204275656E6F2100204C4D333234BE
:100550002054657374696E672E2E2E0020427565D7
:100560006E6F7320256900002052656772657361A4
:100570006E646F2E2E2E000020313E4C4D333538E8
:1005800020323E4C4D333438000020343E4C4D3345
:10059000323420333E5061672E5369672E0020525B
:1005A0006567726573616E646F2E2E2E00002031B8
:1005B0003E4C4D33353820323E4C4D3334380000FC
:1005C00020343E4C4D33323420333E5061672E533D
:1005D00069672E0020313E4E504E20323E504E5024
:1005E000000020343E4E41444120333E5265677244
:1005F0006573617200004E504E2054657374696ECD
:10060000672E2E2E00004E504E204255454E4F0074
:1006100020323E566F6C766572004E504E204D4132
:100620004C4F000020323E566F6C766572002052AF
:100630006567726573616E646F2E2E2E0000203127
:100640003E4E504E20323E504E50000020343E4E22
:1006500041444120333E5265677265736172000008
:10066000504E502054657374696E672E2E2E000014
:10067000504E50204255454E4F0020323E566F6C32
:1006800076657200504E50204D414C4F0000203294
:100690003E566F6C766572002052656772657361B5
:1006A0006E646F2E2E2E000020313E4E504E2032B2
:1006B0003E504E50000020343E4E41444120333ED7
:1006C00052656772657361720000EA6A4D0EE96EE9
:1006D000EF500EE0010E016E006A002EFED7012ED3
:1006E000FBD74A0E006E002EFED700D0EF2EF2D7B9
:1006F0001200080E016E00008A92939200005A3692
:100700008A90D8B09380D8A09390938281A2FED78C
:10071000012EF1D700008A9293920000938000008E
:100720000000938281A2FED7016A000081B001809F
:100730008A9293928A90939012005850000A03E094
:10074000010A21E041D05738006EF00E001600502B
:100750001D10596E5A6ECDDF00005738006EF00E36
:100760000016005004091D10596E5A6EC2DF00D0E9
:100770005738006EF00E00160050FB0B1D10596E1E
:100780005A6EB7DF21D05738006EF00E00160050B9
:1007900001091D10596E5A6EACDF00005738006E0B
:1007A000F00E00160050010904091D10596E5A6E12
:1007B000A0DF00D05738006EF00E0016005001097F
:1007C0001D10596E5A6E95DF1200938000009382BF
:1007D00000008A90939000008A92939219C05AF078
:1007E00088DF5438566E0F0E561656C057F055C057
:1007F00058F0A3DF54500F0B566E576E55C058F08B
:100800009CDF93900000938281A2FED7000000D06D
:100810000000938000001200010E546E556AD5DF6F
:10082000020E4D6E52DF010E1C6E12003FC019F019
:1008300041C01AF040C01BF0F29CF29EF2BEFDD700
:10084000320E4D6E42DF93800000938200008A904A
:10085000939000008A92939219C05AF04ADF576A27
:10086000586A6BDF0F0E4D6E30DF010E426E425044
:10087000030809E3030E576E586A5FDF050E4D6EDD
:1008800024DF422AF4D7020E576E586A56DF050E4F
:100890004D6E1BDF93900000938281A2FED7000073
:1008A00000D0000093800000426A425003080CE32D
:1008B000036A425002DC436E546E556A86DF050EB1
:1008C0004D6E03DF422AF1D7A7DFC00EF2125FEFB1
:1008D00007F04E501A5C03E21AC04FF002D04EC02F
:1008E0004FF04F50010A07E0030A07E0010A08E051
:1008F000070A09E00BD0516A0AD0400E516E07D0AA
:10090000140E516E04D0540E516E01D0516A4D50E8
:100910001B5C03E21BC050F002D04DC050F0010E32
:10092000505C5124526E52508009536E546E556A79
:100930004CDF12004C500C0A05E0060A05E0020AE2
:100940000FE013D069DF16D01C2A1C501A5C02E29B
:10095000010E1C6E010E4D6E1CC04EF0BADF0AD0A7
:10096000100E546E556A31DF05D04CC054F0010EA4
:10097000556E2BDF12000900F5520CE0F6CF3FF068
:10098000F7CF40F0F5CF4CF0D5DF3FC0F6FF40C0C9
:10099000F7FFF1D71200EA6A400EE96EEF500EE061
:1009A000010E016E006A002EFED7012EFBD74A0E03
:1009B000006E002EFED700D0EF2EF2D7120080A6D8
:1009C00004D0010E016E15D012D080A804D0020E02
:1009D000016E0FD00CD080AA04D0030E016E09D096
:1009E00006D0948082A003D0040E016E02D0000EC7
:1009F000016E12008E0E006E40C001F03FC002F08A
:100A0000036A015209E102C001F0026A080E005EA9
:100A1000015202E1006A08D0D89001BE04D002362B
:100A200001360006F9D7019EA2EF07F04C50D8B46A
:100A300071D0006E5050D8B46DD0002604E3810E02
:100A4000002668E204D07F0E005E64E363E04DC0E0
:100A500054F05150541A4D8E518E4F505302F4CFD2
:100A600056F04E505202F4CF03F0F3CF55F053023C
:100A7000F3505626F4505522000E03224F505202D6
:100A8000F3505626F4505522000E026A0322022229
:100A90004D505302F3505526F4500322000E02220B
:100AA0004D505202F3500326F4500222000E016A08
:100AB00001224F505102F3505526F4500322000EEC
:100AC000022201224E505102F3500326F45002221A
:100AD000000E01224D505102F3500226F450012223
:100AE000002A01BE05D0553603360236013600060F
:100AF000000E55AE0AD0032A02220122015005E160
:100B0000025003E1035001E1002A54BE018E54AEAD
:100B1000019E04D0006A016A026A036A1200090099
:100B2000F6CF40F0F7CF41F0F5CF4CF003DF40C0F7
:100B3000F6FF41C0F7FF3F2EF2D712004C50B60827
:100B40004C6E036A4DC050F04D8ED8904D324E32EF
:100B50004F3203320232013200324C2EF6D750AE01
:100B60000BD0001E011E021E031E002AD8B4012A4B
:100B7000D8B4022AD8B4032A2CEF06F0D8B203D096
:100B8000EA6A540EE96E006A016A026A036A546AEC
:100B9000556A566A576A53505210511050102CE043
:100BA000200E586ED8904C364D364E364F36543651
:100BB0005536563657365350575C08E15250565CFE
:100BC00005E15150555C02E15050545C0FE3505028
:100BD000545E5150D8A0513C555E5250D8A0523C62
:100BE000565E5350D8A0533C575ED880003601362D
:100BF00002360336582ED6D754C0EFFF55C0ECFF4F
:100C000056C0ECFF57C0ECFF1200E950446E435051
:100C1000466E19E042C04FF041C04EF040C04DF06A
:100C20003FC04CF0536A526A200E516E820E506ED5
:100C3000FDDE03C042F002C041F001C040F000C040
:100C40003FF0462EE7D742C04FF041C04EF040C0C3
:100C50004DF03FC04CF072D703C042F002C041F0EB
:100C600001C040F000C03FF042AE0DD04406448ABF
:100C70003F1E401E411E421E3F2AD8B4402AD8B40F
:100C8000412AD8B4422A3B0E4B6E9A0E4A6ECA0EC7
:100C9000496E486A0A0E466E4350D8B4442AD88238
:100CA000EA6A3F0EE96E42C04FF041C04EF040C0CC
:100CB0004DF03FC04CF04BC053F04AC052F049C019
:100CC00051F048C050F05ADF015000520FE1432864
:100CD000465C0CE044500CE00F0B465C01E037E250
:100CE00044BE35D044BC04D0200E2DD0200E441676
:100CF00044AA0CD0449A4350D8A444060050446EF1
:100D00002D0E4C6E17DE4450006E446A4350465C14
:100D10000AE10050446E2E0E4C6E0CDE4450006E04
:100D2000200E4416000E300E44AA0DD0449A4350B3
:100D3000D8A444060050446E2D0E4C6EFBDD44508A
:100D4000006E446A300E002600C04CF0F3DDD892ED
:100D50004BC04FF04AC04EF049C04DF048C04CF077
:100D6000536A526A516A0A0E506E08DF03C04BF094
:100D700002C04AF001C049F000C048F0462E8FD7AB
:100D8000EFEF07F04650016A455C03E245C000F012
:100D90000CD0006A080E476E453600364650005C9F
:100DA000D8B0006E0136472EF7D71200200E40A8AB
:100DB000300E416E3FC000F03FAE08D0001E002A4A
:100DC00000C03FF02D0E416E408E408001503FC06C
:100DD00045F0640E466ED6DF00C03FF0300E0124B1
:100DE000426E3FC045F00A0E466ECCDF300E002446
:100DF000446E300E0124436E41C000F0300E425C60
:100E000004E0408240BE408412D041C042F0200E37
:100E1000416E300E435C04E0408040BE408207D00B
:100E2000D8A4408004E142C043F0200E426E40B49A
:100E300005D040B206D040B007D009D041C04CF038
:100E400079DD42C04CF076DD43C04CF073DD44C028
:100E50004CF070DD1200F86AD09E078E010E1C6EF9
:100E6000080E1D6E266A256AF90E246E9B0E236EEF
:100E70004E0E276E020E286E100E296E2A6A306AF8
:100E8000326A316AC150C00B0F09C16E070EB46ED1
:100E90001E6A600ED36ED350FF0E926E000E956EDA
:100EA000FF0E946ED190870ED56EC00EF212F19C9B
:100EB00027C03FF028C040F029C041F0B7D4C1504E
:100EC000C00B0E09C16EC050C00B0709C06EC08EAA
:100ED000C2800C0E4C6E00012DDD4D6A010E4E6E6F
:100EE000F8DCF40EF66E000EF76E45DD4D6A020E6C
:100EF0004E6EEFDC040EF66E010EF76E3CDD040E56
:100F00003F6EFA0E406E47DD3F2EFBD758DD012CB9
:100F100096D0000E016EC250C30B0110C26E060EB9
:100F2000006E002EFED70000C282C2B2FED7C4CF30
:100F300002F0C3CF01F0C4CF03F0C3CF3FF0C4CF62
:100F400040F058D503C036F002C035F001C034F08F
:100F500000C033F036C04FF035C04EF034C04DF015
:100F600033C04CF0BD0E536E1A0E526E200E516EF1
:100F7000770E506E5BDD03C03AF002C039F001C05D
:100F800038F000C037F03AC03EF039C03DF038C00C
:100F90003CF037C03BF00C0E4C6ECCDC4D6A010EC1
:100FA0004E6E97DC140EF66E010EF76EE4DC4D6AA1
:100FB000020E4E6E8EDC260EF66E010EF76E030EDE
:100FC0003F6EADDDC90EE96E3EC042F03DC041F05E
:100FD0003CC040F03BC03FF0020E436E16D62E0ED2
:100FE000F66E010EF76E070E3F6E99DD020E3F6E34
:100FF000FA0E406ED0DC3F2EFBD7E1DC0150020838
:101000001DE10C0E4C6E96DC4D6A010E4E6E61DCDD
:10101000360EF66E010EF76EAEDC4D6A020E4E6EA7
:1010200058DC460EF66E010EF76EA5DC040E3F6E20
:10103000FA0E406EB0DC3F2EFBD701D06AD7BFDC82
:1010400001500308D8A417EF0FF00C0E4C6E72DCA1
:101050004D6A010E4E6E3DDC560EF66E010EF76EB9
:101060008ADC4D6A020E4E6E34DC660EF66E010EA0
:10107000F76E81DC040E3F6EFA0E406E8CDC3F2E64
:10108000FBD79DDC012CF9D02B8024C0D7FF23C0D7
:10109000D6FF0000D6502C6ED7CF2DF02E6A2F6AC7
:1010A000F28AF0880C0E4C6E45DC4D6A010E4E6ED5
:1010B00010DC780EF66E010EF76E5DDC4D6A020EE6
:1010C0004E6E07DC880EF66E010EF76E54DC2BA018
:1010D0001DD075DC0150020818E10C0E4C6E2ADCA4
:1010E0004D6A010E4E6E69EC04F0920EF66E010E22
:1010F000F76E41DC4D6A020E4E6E69EC04F0A20EF2
:10110000F66E010EF76E37DC01D0E1D72BB082D03E
:101110002BB23DD00C0E4C6E0DDC4D6A010E4E6EA6
:1011200069EC04F0B40EF66E010EF76E050E3F6E1C
:10113000F6DC2AC03FF0180E406E38DE4D6A020E13
:101140004E6E69EC04F0BC0EF66E010EF76E13DC09
:1011500036DC015002081AE10C0E4C6E9AEC04F0D9
:101160004D6A010E4E6E69EC04F0C60EF66E010E6D
:10117000F76E01DC4D6A020E4E6E69EC04F0D60E7D
:10118000F66E010EF76EBBEC04F001D0E1D72BA296
:1011900041D00C0E4C6E9AEC04F04D6A010E4E6E6E
:1011A00069EC04F0E80EF66E010EF76E060E3F6E67
:1011B000B6DC2AC03FF0180E406EF8DD4D6A020E14
:1011C0004E6E69EC04F0F20EF66E010EF76EBBEC9B
:1011D00004F0DFEC04F0015002081BE10C0E4C6E31
:1011E0009AEC04F04D6A010E4E6E69EC04F0FC0EB0
:1011F000F66E010EF76EBBEC04F04D6A020E4E6EF9
:1012000069EC04F00C0EF66E020EF76EBBEC04F007
:1012100001D0DFD72B902A6A0C0E4C6E9AEC04F0AA
:101220004D6A020E4E6E69EC04F01E0EF66E020E52
:10123000F76EBBEC04F00C0E4C6E9AEC04F04D6AA9
:10124000010E4E6E69EC04F02E0EF66E020EF76E75
:10125000BBEC04F04D6A020E4E6E69EC04F03E0EDB
:10126000F66E020EF76EBBEC04F0040E3F6EFA0E43
:10127000406ECBEC04F03F2EFAD7DFEC04F00150C7
:101280000208D8A40BD1939E8A8E0C0E4C6E9AEC59
:1012900004F04D6A010E4E6E69EC04F0500EF66ECD
:1012A000020EF76EBBEC04F04D6A020E4E6E69EC56
:1012B00004F0620EF66E020EF76EBBEC04F0040E44
:1012C0003F6EFA0E406ECBEC04F03F2EFAD79480BE
:1012D00082A024D00C0E4C6E9AEC04F04D6A010EE4
:1012E0004E6E69EC04F06C0EF66E020EF76EBBECFF
:1012F00004F04D6A020E4E6E69EC04F07C0EF66E40
:10130000020EF76EBBEC04F0020E3F6EFA0E406E5A
:10131000CBEC04F03F2EFAD7010E3026948282A245
:1013200024D00C0E4C6E9AEC04F04D6A010E4E6EF9
:1013300069EC04F08E0EF66E020EF76EBBEC04F054
:101340004D6A020E4E6E69EC04F09E0EF66E020EB1
:10135000F76EBBEC04F0020E3F6EFA0E406ECBEC63
:1013600004F03F2EFAD7010E3026948482A424D0B4
:101370000C0E4C6E9AEC04F04D6A010E4E6E69EC48
:1013800004F0B00EF66E020EF76EBBEC04F04D6A80
:10139000020E4E6E69EC04F0C00EF66E020EF76E91
:1013A000BBEC04F0020E3F6EFA0E406ECBEC04F084
:1013B0003F2EFAD7010E3026948A82AA24D00C0E32
:1013C0004C6E9AEC04F04D6A010E4E6E69EC04F01E
:1013D000D20EF66E020EF76EBBEC04F04D6A020EF2
:1013E0004E6E69EC04F0E20EF66E020EF76EBBEC88
:1013F00004F0020E3F6EFA0E406ECBEC04F03F2E6E
:10140000FAD7010E30263050000847E2939E8A9E9C
:101410000C0E4C6E9AEC04F04D6A010E4E6E69ECA7
:1014200004F0F40EF66E020EF76E080E3F6E8FECAF
:1014300005F030C03FF0180E406EB8DC4D6A020E69
:101440004E6E69EC04F0000EF66E030EF76EBBEC08
:1014500004F0040E3F6EFA0E406ECBEC04F03F2E0B
:10146000FAD7306A0C0E4C6E9AEC04F04D6A010EFD
:101470004E6E69EC04F00E0EF66E030EF76EBBECCA
:1014800004F04D6A020E4E6E69EC04F01E0EF66E0C
:10149000030EF76EBBEC04F001D0F5D6DFEC04F0E0
:1014A00001500408D8A4A0D0939E8A8E0C0E4C6ED6
:1014B0009AEC04F04D6A010E4E6E69EC04F0300EA9
:1014C000F66E030EF76EBBEC04F04D6A020E4E6E24
:1014D00069EC04F0400EF66E030EF76EBBEC04F000
:1014E000040E3F6EFA0E406ECBEC04F03F2EFAD79E
:1014F000948282A23FD00C0E4C6E9AEC04F04D6A9E
:10150000010E4E6E69EC04F04A0EF66E030EF76E95
:10151000BBEC04F04D6A020E4E6E69EC04F0580EFE
:10152000F66E030EF76EBBEC04F0020E3F6EFA0E81
:10153000406ECBEC04F03F2EFAD70C0E4C6E9AECBA
:1015400004F04D6A010E4E6E69EC04F0680EF66E02
:10155000030EF76EBBEC04F04D6A020E4E6E69ECA2
:1015600004F0780EF66E030EF76EBBEC04F0939E5B
:101570008A9E3AD0DFEC04F00150020834E1939ED9
:101580008A9E0C0E4C6E9AEC04F04D6A020E4E6E62
:1015900069EC04F08A0EF66E030EF76EBBEC04F0F5
:1015A000020E3F6EFA0E406ECBEC04F03F2EFAD7DF
:1015B0000C0E4C6E9AEC04F04D6A010E4E6E69EC06
:1015C00004F09A0EF66E030EF76EBBEC04F04D6A53
:1015D000020E4E6E69EC04F0AA0EF66E030EF76E64
:1015E000BBEC04F001D060D7DFEC04F0015003083D
:1015F000D8A415EF0FF00C0E4C6E9AEC04F04D6A67
:10160000010E4E6E69EC04F0BC0EF66E030EF76E22
:10161000BBEC04F04D6A020E4E6E69EC04F0CE0E87
:10162000F66E030EF76EBBEC04F0040E3F6EFA0E7E
:10163000406ECBEC04F03F2EFAD7DFEC04F0012C27
:10164000F7D0939E8A8E0C0E4C6E9AEC04F04D6A85
:10165000010E4E6E69EC04F0E20EF66E030EF76EAC
:10166000BBEC04F04D6A020E4E6E69EC04F0F40E11
:10167000F66E030EF76EBBEC04F0040E3F6EFA0E2E
:10168000406ECBEC04F03F2EFAD7948282A224D095
:101690000C0E4C6E9AEC04F04D6A010E4E6E69EC25
:1016A00004F0FE0EF66E030EF76EBBEC04F04D6A0E
:1016B000020E4E6E69EC04F00E0EF66E040EF76E1E
:1016C000BBEC04F0020E3F6EFA0E406ECBEC04F061
:1016D0003F2EFAD7010E3026948482A424D00C0E1B
:1016E0004C6E9AEC04F04D6A010E4E6E69EC04F0FB
:1016F000200EF66E040EF76EBBEC04F04D6A020E7F
:101700004E6E69EC04F0300EF66E040EF76EBBEC14
:1017100004F0020E3F6EFA0E406ECBEC04F03F2E4A
:10172000FAD7010E30263050000848E2939E8A9E78
:101730000C0E4C6E9AEC04F04D6A010E4E6E69EC84
:1017400004F0420EF66E040EF76E080E3F6E8FEC3C
:1017500005F030C03FF0180E406ED6EC06F04D6A32
:10176000020E4E6E69EC04F04E0EF66E040EF76E2D
:10177000BBEC04F0040E3F6EFA0E406ECBEC04F0AE
:101780003F2EFAD7306A0C0E4C6E9AEC04F04D6A7C
:10179000010E4E6E69EC04F05C0EF66E040EF76EF0
:1017A000BBEC04F04D6A020E4E6E69EC04F06E0E56
:1017B000F66E040EF76EBBEC04F03AD0DFEC04F0EA
:1017C0000150020834E1939E8A9E0C0E4C6E9AECF6
:1017D00004F04D6A020E4E6E69EC04F0820EF66E55
:1017E000040EF76EBBEC04F0020E3F6EFA0E406E74
:1017F000CBEC04F03F2EFAD70C0E4C6E9AEC04F0B2
:101800004D6A010E4E6E69EC04F0920EF66E040EF7
:10181000F76EBBEC04F04D6A020E4E6E69EC04F0FC
:10182000A40EF66E040EF76EBBEC04F001D009D7DF
:10183000DFEC04F001500408D8A445D1939E8A8EB1
:101840000C0E4C6E9AEC04F04D6A010E4E6E69EC73
:1018500004F0B80EF66E040EF76EBBEC04F04D6AA1
:10186000020E4E6E69EC04F0CA0EF66E040EF76EB0
:10187000BBEC04F0040E3F6EFA0E406ECBEC04F0AD
:101880003F2EFAD7948082A024D00C0E4C6E9AEC96
:1018900004F04D6A010E4E6E69EC04F0D40EF66E43
:1018A000040EF76EBBEC04F04D6A020E4E6E69EC4E
:1018B00004F0E40EF66E040EF76EBBEC04F0020EBC
:1018C0003F6EFA0E406ECBEC04F03F2EFAD7010EBD
:1018D0003026948282A224D00C0E4C6E9AEC04F036
:1018E0004D6A010E4E6E69EC04F0F60EF66E040EB3
:1018F000F76EBBEC04F04D6A020E4E6E69EC04F01C
:10190000060EF66E050EF76EBBEC04F0020E3F6E8F
:10191000FA0E406ECBEC04F03F2EFAD7010E3026C3
:10192000948482A424D00C0E4C6E9AEC04F04D6A80
:10193000010E4E6E69EC04F0180EF66E050EF76E91
:10194000BBEC04F04D6A020E4E6E69EC04F0280EFA
:10195000F66E050EF76EBBEC04F0020E3F6EFA0E4B
:10196000406ECBEC04F03F2EFAD7010E3026948A5D
:1019700082AA24D00C0E4C6E9AEC04F04D6A010E33
:101980004E6E69EC04F03A0EF66E050EF76EBBEC87
:1019900004F04D6A020E4E6E69EC04F04A0EF66ECB
:1019A000050EF76EBBEC04F0020E3F6EFA0E406EB1
:1019B000CBEC04F03F2EFAD7010E30263050000851
:1019C00048E2939E8A9E0C0E4C6E9AEC04F04D6A8F
:1019D000010E4E6E69EC04F05C0EF66E050EF76EAD
:1019E000080E3F6E8FEC05F030C03FF0180E406ED1
:1019F000D6EC06F04D6A020E4E6E69EC04F0680EED
:101A0000F66E050EF76EBBEC04F0040E3F6EFA0E98
:101A1000406ECBEC04F03F2EFAD7306A0C0E4C6EC1
:101A20009AEC04F04D6A010E4E6E69EC04F0780EEB
:101A3000F66E050EF76EBBEC04F04D6A020E4E6EAC
:101A400069EC04F08A0EF66E050EF76EBBEC04F03E
:101A50003AD0DFEC04F00150020834E1939E8A9EF4
:101A60000C0E4C6E9AEC04F04D6A020E4E6E69EC50
:101A700004F09E0EF66E050EF76EBBEC04F0020E3F
:101A80003F6EFA0E406ECBEC04F03F2EFAD70C0EF0
:101A90004C6E9AEC04F04D6A010E4E6E69EC04F047
:101AA000AE0EF66E050EF76EBBEC04F04D6A020E3C
:101AB0004E6E69EC04F0C00EF66E050EF76EBBECD0
:101AC00004F001D0BBD6DFEC04F001500308D8A429
:101AD000AAD10C0E4C6E9AEC04F04D6A010E4E6EBB
:101AE00069EC04F0D40EF66E050EF76EBBEC04F054
:101AF0004D6A020E4E6E69EC04F0E20EF66E050EB3
:101B0000F76EBBEC04F0040E3F6EFA0E406ECBECA9
:101B100004F03F2EFAD7DFEC04F0012CB7D02B8471
:101B20000C0E4C6E9AEC04F04D6A010E4E6E69EC90
:101B300004F0F60EF66E050EF76EBBEC04F0040E24
:101B40003F6EFA0E406ECBEC04F03F2EFAD7948C29
:101B500082BC01D02B9495908C80060E3F6EFA0EBD
:101B6000406ECBEC04F03F2EFAD7948C82AC01D0BF
:101B70002B942BA429D00C0E4C6E9AEC04F04D6AD9
:101B8000010E4E6E69EC04F0060EF66E060EF76E50
:101B9000BBEC04F04D6A020E4E6E69EC04F0100EC0
:101BA000F66E060EF76EBBEC04F0040E3F6EFA0EF6
:101BB000406ECBEC04F03F2EFAD7DFEC04F001507E
:101BC000020801E101D0F9D72BB422D00C0E4C6EE3
:101BD0009AEC04F04D6A010E4E6E69EC04F01A0E98
:101BE000F66E060EF76EBBEC04F04D6A020E4E6EFA
:101BF00069EC04F0240EF66E060EF76EBBEC04F0F2
:101C0000040E3F6EFA0E406ECBEC04F03F2EFAD776
:101C1000DFEC04F00150020838E195908C904D6A99
:101C2000020E4E6E69EC04F02E0EF66E060EF76E86
:101C3000BBEC04F0040E3F6EFA0E406ECBEC04F0E9
:101C40003F2EFAD70C0E4C6E9AEC04F04D6A010E42
:101C50004E6E69EC04F03E0EF66E060EF76EBBECAF
:101C600004F04D6A020E4E6E69EC04F04C0EF66EF6
:101C7000060EF76EBBEC04F0040E3F6EFA0E406EDB
:101C8000CBEC04F03F2EFAD701D0C2D7DFEC04F042
:101C900001500208D8A4B7D02B860C0E4C6E9AECDB
:101CA00004F04D6A010E4E6E69EC04F0600EF66EA3
:101CB000060EF76EBBEC04F0040E3F6EFA0E406E9B
:101CC000CBEC04F03F2EFAD7948E82BE01D02B9637
:101CD00095928C82060E3F6EFA0E406ECBEC04F0AD
:101CE0003F2EFAD7948E82AE01D02B962BA629D008
:101CF0000C0E4C6E9AEC04F04D6A010E4E6E69ECBF
:101D000004F0700EF66E060EF76EBBEC04F04D6A32
:101D1000020E4E6E69EC04F07A0EF66E060EF76E49
:101D2000BBEC04F0040E3F6EFA0E406ECBEC04F0F8
:101D30003F2EFAD7DFEC04F00150020801E101D098
:101D4000F9D72BB622D00C0E4C6E9AEC04F04D6AEB
:101D5000010E4E6E69EC04F0840EF66E060EF76E00
:101D6000BBEC04F04D6A020E4E6E69EC04F08E0E70
:101D7000F66E060EF76EBBEC04F0040E3F6EFA0E24
:101D8000406ECBEC04F03F2EFAD7DFEC04F00150AC
:101D9000020838E195928C924D6A020E4E6E69EC03
:101DA00004F0980EF66E060EF76EBBEC04F0040E0F
:101DB0003F6EFA0E406ECBEC04F03F2EFAD70C0EBD
:101DC0004C6E9AEC04F04D6A010E4E6E69EC04F014
:101DD000A80EF66E060EF76EBBEC04F04D6A020E0E
:101DE0004E6E69EC04F0B60EF66E060EF76EBBECA6
:101DF00004F0040E3F6EFA0E406ECBEC04F03F2E62
:101E0000FAD701D0C2D7DFEC04F0015003080AE191
:101E1000020E3F6EFA0E406ECBEC04F03F2EFAD766
:101E200069EF07F078D6FBEF0AF041EF08F086EF94
:0A1E300007F0000169EF07F003005E
:020000040030CA
:0E0000003FC93E1E0087A1000FC00FE00F4059
:00000001FF
;PIC18F4550
;CRC=F5DE  CREATED="16-dic.-24 09:52"
