:04000000E6EF05F032
:08000800046ED8CF05F0E0CF33
:1000100006F00001E9CF0CF0EACF07F0E1CF08F0DD
:10002000E2CF09F0D9CF0AF0DACF0BF0F3CF12F01C
:10003000F4CF13F0FACF14F0F5CF15F0F6CF16F099
:10004000F7CF17F000C00EF001C00FF002C010F0A3
:1000500003C011F0F2AA30EF00F0F2B46DEF00F03F
:10006000F0A836EF00F0F0B267EF00F00EC000F03D
:100070000FC001F010C002F011C003F00CC0E9FF86
:1000800007C0EAFF078E08C0E1FF09C0E2FF0AC00F
:10009000D9FF0BC0DAFF12C0F3FF13C0F4FF14C086
:1000A000FAFF15C0F5FF16C0F6FF17C0F7FF0450A2
:1000B00006C0E0FF05C0D8FF1000F76ACA0FF66E51
:1000C000000EF7220900F5501200280C0106010E5F
:1000D0002A26F092F09236EF00F0F098F29A2B90E8
:1000E0002A50090802E22B8201D02B92F294F2945A
:1000F00036EF00F0204D454E55205052494E4349B1
:1001000050414C0020313E414436323020333E4E87
:100110004558540020414436323020546573746988
:100120006E672E2E2E0020563A25302E32662E2057
:10013000323E52657400204D454E55205052494E76
:10014000434950414C0020313E4144363230203347
:100150003E4E4558540020313E35353520323E4C18
:100160004D323234000020343E37343120333E509B
:1001700061672E5369672E0020353535205465732D
:1001800074696E672E2E2E0020323E566F6C766597
:10019000720020313E35353520323E4C4D323234FE
:1001A000000020343E37343120333E5061672E53F7
:1001B00069672E004D616C6F2025690020323E5624
:1001C0006F6C7665720020313E35353520323E4CFD
:1001D0004D323234000020343E37343120333E502B
:1001E00061672E5369672E004275656E6F20256921
:1001F000000020323E566F6C7665720020313E352D
:10020000353520323E4C4D323234000020343E37FA
:10021000343120333E5061672E5369672E002052DF
:100220006567726573616E646F2E2E2E000020313B
:100230003E35353520323E4C4D32323400002034CC
:100240003E37343120333E5061672E5369672E00AC
:10025000204C4D3232342054657374696E672E2EF3
:100260002E0020323E566F6C7665720020416D7014
:100270004F702D31204275656E6F2100204C4D323C
:1002800032342054657374696E672E2E2E0020411F
:100290006D704F702D32204275656E6F2100204CBD
:1002A0004D3232342054657374696E672E2E2E00E1
:1002B00020416D704F702D33204275656E6F2100A7
:1002C000204C4D3232342054657374696E672E2E83
:1002D0002E0020416D704F702D34204275656E6F79
:1002E0002100204C4D3232342054657374696E679E
:1002F0002E2E2E00204275656E6F7320256900003A
:1003000020526567726573616E646F2E2E2E000039
:1003100020313E35353520323E4C4D3232340000EE
:1003200020343E37343120333E5061672E536967A5
:100330002E0020526567726573616E646F2E2E2EDB
:10034000000020313E35353520323E4C4D323234BE
:10035000000020343E37343120333E5061672E5345
:1003600069672E00203734312054657374696E67D5
:100370002E2E2E0020323E566F6C76657200204184
:100380006D704F70204275656E6F21002052656759
:10039000726573616E646F2E2E2E000020313E3523
:1003A000353520323E4C4D323234000020343E3759
:1003B000343120333E5061672E5369672E0020523E
:1003C0006567726573616E646F2E2E2E000020319A
:1003D0003E35353520323E4C4D323234000020342B
:1003E0003E37343120333E5061672E5369672E000B
:1003F00020313E4C4D33353820323E4C4D3334386D
:10040000000020343E4C4D33323420333E524554AC
:1004100055524E00204C4D3332342054657374696C
:100420006E672E2E2E0020323E566F6C766572005F
:1004300020526567726573616E646F2E2E2E000008
:10044000EA6A4D0EE96EEF500EE0010E016E006A91
:10045000002EFED7012EFBD74A0E006E002EFED7CF
:1004600000D0EF2EF2D71200080E016E00008A9223
:10047000939200005A368A90D8B09380D8A0939077
:10048000938281A2FED7012EF1D700008A92939227
:100490000000938000000000938281A2FED7016AD1
:1004A000000081B001808A9293928A90939012000A
:1004B0005850000A03E0010A21E041D05738006E8D
:1004C000F00E001600501D10596E5A6ECDDF000060
:1004D0005738006EF00E0016005004091D10596EBA
:1004E0005A6EC2DF00D05738006EF00E0016005072
:1004F000FB0B1D10596E5A6EB7DF21D05738006EB6
:10050000F00E0016005001091D10596E5A6EACDF36
:1005100000005738006EF00E001600500109040963
:100520001D10596E5A6EA0DF00D05738006EF00EC5
:100530000016005001091D10596E5A6E95DF120009
:1005400093800000938200008A90939000008A922A
:10055000939219C05AF088DF5438566E0F0E561613
:1005600056C057F055C058F0A3DF54500F0B566ECD
:10057000576E55C058F09CDF93900000938281A283
:10058000FED7000000D00000938000001200010E92
:10059000546E556AD5DF020E4D6E52DF010E1C6E91
:1005A00012003FC019F041C01AF040C01BF0F29C8D
:1005B000F29EF2BEFDD7320E4D6E42DF93800000F8
:1005C000938200008A90939000008A92939219C0BF
:1005D0005AF04ADF576A586A6BDF0F0E4D6E30DFF4
:1005E000010E426E4250030809E3030E576E586A2B
:1005F0005FDF050E4D6E24DF422AF4D7020E576EE0
:10060000586A56DF050E4D6E1BDF939000009382F3
:1006100081A2FED7000000D0000093800000426A53
:10062000425003080CE3036A425047DD436E546EA8
:10063000556A86DF050E4D6E03DF422AF1D7A7DF2C
:10064000C00EF21218EF06F04E501A5C03E21AC008
:100650004FF002D04EC04FF04F50010A07E0030A9E
:1006600007E0010A08E0070A09E00BD0516A0AD046
:10067000400E516E07D0140E516E04D0540E516EC0
:1006800001D0516A4D501B5C03E21BC050F002D0F8
:100690004DC050F0010E505C5124526E52508009F2
:1006A000536E546E556A4CDF12004C500C0A05E034
:1006B000060A05E0020A0FE013D069DF16D01C2AF3
:1006C0001C501A5C02E2010E1C6E010E4D6E1CC025
:1006D0004EF0BADF0AD0100E546E556A31DF05D0E5
:1006E0004CC054F0010E556E2BDF12000900F5527C
:1006F0000CE0F6CF3FF0F7CF40F0F5CF4CF0D5DF70
:100700003FC0F6FF40C0F7FFF1D71200EA6A400E83
:10071000E96EEF500EE0010E016E006A002EFED76A
:10072000012EFBD74A0E006E002EFED700D0EF2E12
:10073000F2D7120080A604D0010E016E15D012D09F
:1007400080A804D0020E016E0FD00CD080AA04D075
:10075000030E016E09D006D0948082A003D0040E4F
:10076000016E02D0000E016E12008E0E006E40C0AF
:1007700001F03FC002F0036A015209E102C001F03A
:10078000026A080E005E015202E1006A08D0D890A9
:1007900001BE04D0023601360006F9D7019E5BEF98
:1007A00006F04C50D8B471D0006E5050D8B46DD013
:1007B000002604E3810E002668E204D07F0E005E6E
:1007C00064E363E04DC054F05150541A4D8E518E85
:1007D0004F505302F4CF56F04E505202F4CF03F074
:1007E000F3CF55F05302F3505626F4505522000E25
:1007F00003224F505202F3505626F4505522000E59
:10080000026A032202224D505302F3505526F4503F
:100810000322000E02224D505202F3500326F450E0
:100820000222000E016A01224F505102F350552658
:10083000F4500322000E022201224E505102F350C6
:100840000326F4500222000E01224D505102F350B3
:100850000226F4500122002A01BE05D05536033687
:10086000023601360006000E55AE0AD0032A0222D7
:100870000122015005E1025003E1035001E1002A89
:1008800054BE018E54AE019E04D0006A016A026A11
:10089000036A12000900F6CF40F0F7CF41F0F5CF20
:1008A0004CF003DF40C0F6FF41C0F7FF3F2EF2D708
:1008B00012004C50B6084C6E036A4DC050F04D8E7D
:1008C000D8904D324E324F32033202320132003272
:1008D0004C2EF6D750AE0BD0001E011E021E031E7A
:1008E000002AD8B4012AD8B4022AD8B4032AE7EFE0
:1008F00004F0D8B203D0EA6A540EE96E006A016AC5
:10090000026A036A546A556A566A576A535052100B
:10091000511050102CE0200E586ED8904C364D36A9
:100920004E364F3654365536563657365350575C3A
:1009300008E15250565C05E15150555C02E15050BF
:10094000545C0FE35050545E5150D8A0513C555E5A
:100950005250D8A0523C565E5350D8A0533C575EDC
:10096000D8800036013602360336582ED6D754C00A
:10097000EFFF55C0ECFF56C0ECFF57C0ECFF120074
:10098000E950446E4350466E19E042C04FF041C0FA
:100990004EF040C04DF03FC04CF0536A526A200EFA
:1009A000516E820E506EFDDE03C042F002C041F077
:1009B00001C040F000C03FF0462EE7D742C04FF0E4
:1009C00041C04EF040C04DF03FC04CF072D703C064
:1009D00042F002C041F001C040F000C03FF042AE22
:1009E0000DD04406448A3F1E401E411E421E3F2A2F
:1009F000D8B4402AD8B4412AD8B4422A3B0E4B6E10
:100A00009A0E4A6ECA0E496E486A0A0E466E4350E6
:100A1000D8B4442AD882EA6A3F0EE96E42C04FF049
:100A200041C04EF040C04DF03FC04CF04BC053F0C1
:100A30004AC052F049C051F048C050F05ADF01504E
:100A400000520FE14328465C0CE044500CE00F0BD1
:100A5000465C01E037E244BE35D044BC04D0200EF1
:100A60002DD0200E441644AA0CD0449A4350D8A44A
:100A700044060050446E2D0E4C6E17DE4450006E3E
:100A8000446A4350465C0AE10050446E2E0E4C6EA0
:100A90000CDE4450006E200E4416000E300E44AAA8
:100AA0000DD0449A4350D8A444060050446E2D0EF5
:100AB0004C6EFBDD4450006E446A300E002600C0D0
:100AC0004CF0F3DDD8924BC04FF04AC04EF049C015
:100AD0004DF048C04CF0536A526A516A0A0E506E8B
:100AE00008DF03C04BF002C04AF001C049F000C06B
:100AF00048F0462E8FD7AAEF06F04650016A455CB3
:100B000003E245C000F00CD0006A080E476E45367F
:100B100000364650005CD8B0006E0136472EF7D73D
:100B20001200200E40A8300E416E3FC000F03FAED4
:100B300008D0001E002A00C03FF02D0E416E408EEE
:100B4000408001503FC045F0640E466ED6DF00C0C5
:100B50003FF0300E0124426E3FC045F00A0E466E53
:100B6000CCDF300E0024446E300E0124436E41C0B1
:100B700000F0300E425C04E0408240BE408412D05F
:100B800041C042F0200E416E300E435C04E04080D4
:100B900040BE408207D0D8A4408004E142C043F068
:100BA000200E426E40B405D040B206D040B007D00F
:100BB00009D041C04CF079DD42C04CF076DD43C035
:100BC0004CF073DD44C04CF070DD1200F86AD09E2A
:100BD000078E010E1C6E080E1D6E266A256AF90E20
:100BE000246E9B0E236E4E0E276E020E286E100E84
:100BF000296E2A6A306A326A316AC150C00B0F0905
:100C0000C16E070EB46E1E6A600ED36ED350FF0E17
:100C1000926E000E956ED190870ED56EC00EF212B8
:100C2000F19C27C03FF028C040F029C041F0B9D462
:100C3000C150C00B0E09C16EC050C00B0709C06E79
:100C4000C08EC2800C0E4C6E00012FDD4D6A010E6D
:100C50004E6EFADCF40EF66E000EF76E47DD4D6A4E
:100C6000020E4E6EF1DC040EF66E010EF76E3EDDE6
:100C7000040E3F6EFA0E406E49DD3F2EFBD75ADD63
:100C8000012C98D0000E016EC250C30B0110C26E31
:100C9000060E006E002EFED70000C282C2B2FED742
:100CA000C4CF02F0C3CF01F0C4CF03F0C3CF3FF0F5
:100CB000C4CF40F05AD503C036F002C035F001C0B1
:100CC00034F000C033F036C04FF035C04EF034C0C1
:100CD0004DF033C04CF0BD0E536E1A0E526E200E06
:100CE000516E770E506E5DDD03C03AF002C039F0F0
:100CF00001C038F000C037F03AC03EF039C03DF0D6
:100D000038C03CF037C03BF093908A800C0E4C6E9C
:100D1000CCDC4D6A010E4E6E97DC140EF66E010EA1
:100D2000F76EE4DC4D6A020E4E6E8EDC260EF66E19
:100D3000010EF76E030E3F6EADDDC90EE96E3EC0CB
:100D400042F03DC041F03CC040F03BC03FF0020EDD
:100D5000436E16D62E0EF66E010EF76E070E3F6E20
:100D600099DD020E3F6EFA0E406ED0DC3F2EFBD7AF
:100D7000E1DC015002081DE10C0E4C6E96DC4D6A60
:100D8000010E4E6E61DC360EF66E010EF76EAEDCB5
:100D90004D6A020E4E6E58DC460EF66E010EF76E70
:100DA000A5DC040E3F6EFA0E406EB0DC3F2EFBD782
:100DB00001D068D7BFDC01500308D8A483D30C0E40
:100DC0004C6E73DC4D6A010E4E6E3EDC560EF66EB6
:100DD000010EF76E8BDC4D6A020E4E6E35DC660E30
:100DE000F66E010EF76E82DC040E3F6EFA0E406E58
:100DF0008DDC3F2EFBD79EDC012CF9D02B8024C04C
:100E0000D7FF23C0D6FF0000D6502C6ED7CF2DF0D1
:100E10002E6A2F6AF28AF0880C0E4C6E46DC4D6A00
:100E2000010E4E6E11DC780EF66E010EF76E5EDC72
:100E30004D6A020E4E6E08DC880EF66E010EF76EDD
:100E400055DC2BA01DD076DC0150020818E10C0EF9
:100E50004C6E2BDC4D6A010E4E6E24EC03F0920EAC
:100E6000F66E010EF76E42DC4D6A020E4E6E24ECF9
:100E700003F0A20EF66E010EF76E38DC01D0E1D75A
:100E80002BB082D02BB23DD00C0E4C6E0EDC4D6AD6
:100E9000010E4E6E24EC03F0B40EF66E010EF76EEA
:100EA000050E3F6EF7DC2AC03FF0180E406E39DEAB
:100EB0004D6A020E4E6E24EC03F0BC0EF66E010E6F
:100EC000F76E14DC37DC015002081AE10C0E4C6E90
:100ED00055EC03F04D6A010E4E6E24EC03F0C60E85
:100EE000F66E010EF76E02DC4D6A020E4E6E24ECB9
:100EF00003F0D60EF66E010EF76E76EC03F001D01D
:100F0000E1D72BA241D00C0E4C6E55EC03F04D6A8C
:100F1000010E4E6E24EC03F0E80EF66E010EF76E35
:100F2000060E3F6EB7DC2AC03FF0180E406EF9DDAA
:100F30004D6A020E4E6E24EC03F0F20EF66E010EB8
:100F4000F76E76EC03F09AEC03F0015002081BE117
:100F50000C0E4C6E55EC03F04D6A010E4E6E24ECF7
:100F600003F0FC0EF66E010EF76E76EC03F04D6AA0
:100F7000020E4E6E24EC03F00C0EF66E020EF76EAF
:100F800076EC03F001D0DFD72B902A6A0C0E4C6E62
:100F900055EC03F04D6A020E4E6E24EC03F01E0E6B
:100FA000F66E020EF76E76EC03F00C0E4C6E55ECFE
:100FB00003F04D6A010E4E6E24EC03F02E0EF66E19
:100FC000020EF76E76EC03F04D6A020E4E6E24ECC4
:100FD00003F03E0EF66E020EF76E76EC03F0040E92
:100FE0003F6EFA0E406E86EC03F03F2EFAD79AEC75
:100FF00003F001500208D8A445D1939E8A8E0C0EAE
:101000004C6E55EC03F04D6A010E4E6E24EC03F06D
:10101000500EF66E020EF76E76EC03F04D6A020E7D
:101020004E6E24EC03F0620EF66E020EF76E76EC56
:1010300003F0040E3F6EFA0E406E86EC03F03F2E76
:10104000FAD7948082A024D00C0E4C6E55EC03F09D
:101050004D6A010E4E6E24EC03F06C0EF66E020E1D
:10106000F76E76EC03F04D6A020E4E6E24EC03F040
:101070007C0EF66E020EF76E76EC03F0020E3F6EFB
:10108000FA0E406E86EC03F03F2EFAD7010E3026A2
:10109000948282A224D00C0E4C6E55EC03F04D6A63
:1010A000010E4E6E24EC03F08E0EF66E020EF76EFD
:1010B00076EC03F04D6A020E4E6E24EC03F09E0EA9
:1010C000F66E020EF76E76EC03F0020E3F6EFA0E2D
:1010D000406E86EC03F03F2EFAD7010E3026948442
:1010E00082A424D00C0E4C6E55EC03F04D6A010E18
:1010F0004E6E24EC03F0B00EF66E020EF76E76EC38
:1011000003F04D6A020E4E6E24EC03F0C00EF66E34
:10111000020EF76E76EC03F0020E3F6EFA0E406E92
:1011200086EC03F03F2EFAD7010E3026958483A477
:1011300024D00C0E4C6E55EC03F04D6A010E4E6E31
:1011400024EC03F0D20EF66E020EF76E76EC03F08E
:101150004D6A020E4E6E24EC03F0E20EF66E020EA5
:10116000F76E76EC03F0020E3F6EFA0E406E86ECE0
:1011700003F03F2EFAD7010E30263050000847E228
:10118000939E8A9E0C0E4C6E55EC03F04D6A010E38
:101190004E6E24EC03F0F40EF66E020EF76E080E9F
:1011A0003F6E4AEC04F030C03FF0180E406EB9DCE0
:1011B0004D6A020E4E6E24EC03F0000EF66E030E26
:1011C000F76E76EC03F0040E3F6EFA0E406E86EC7E
:1011D00003F03F2EFAD7306A0C0E4C6E55EC03F03C
:1011E0004D6A010E4E6E24EC03F0100EF66E030EE7
:1011F000F76E76EC03F04D6A020E4E6E24EC03F0AF
:10120000200EF66E030EF76E76EC03F03BD09AECF0
:1012100003F00150020835E1306A93928A920C0E75
:101220004C6E55EC03F04D6A020E4E6E24EC03F04A
:10123000320EF66E030EF76E76EC03F0020E3F6E82
:10124000FA0E406E86EC03F03F2EFAD70C0E4C6E71
:1012500055EC03F04D6A010E4E6E24EC03F0420E85
:10126000F66E030EF76E76EC03F04D6A020E4E6ECC
:1012700024EC03F0520EF66E030EF76E76EC03F0DC
:1012800001D0BBD69AEC03F001500408D8A4A1D039
:10129000939E8A8E0C0E4C6E55EC03F04D6A010E37
:1012A0004E6E24EC03F0640EF66E030EF76E76ECD1
:1012B00003F04D6A020E4E6E24EC03F0740EF66ECF
:1012C000030EF76E76EC03F0040E3F6EFA0E406EDE
:1012D00086EC03F03F2EFAD7948282A240D00C0E07
:1012E0004C6E55EC03F04D6A010E4E6E24EC03F08B
:1012F0007E0EF66E030EF76E76EC03F04D6A020E6C
:101300004E6E24EC03F08C0EF66E030EF76E76EC48
:1013100003F0020E3F6EFA0E406E86EC03F03F2E95
:10132000FAD7306A939E8A9E0C0E4C6E55EC03F0F1
:101330004D6A010E4E6E24EC03F09C0EF66E030E09
:10134000F76E76EC03F04D6A020E4E6E24EC03F05D
:10135000AC0EF66E030EF76E76EC03F03AD09AEC14
:1013600003F00150020834E1939E8A9E0C0E4C6EED
:1013700055EC03F04D6A020E4E6E24EC03F0BE0EE7
:10138000F66E030EF76E76EC03F0020E3F6EFA0E69
:10139000406E86EC03F03F2EFAD70C0E4C6E55ECE7
:1013A00003F04D6A010E4E6E24EC03F0CE0EF66E85
:1013B000030EF76E76EC03F04D6A020E4E6E24ECCF
:1013C00003F0DE0EF66E030EF76E76EC03F001D03E
:1013D0005FD79AEC03F00150030873E10C0E4C6EDA
:1013E00055EC03F04D6A010E4E6E24EC03F0F00E46
:1013F000F66E030EF76E76EC03F04D6A020E4E6E3B
:1014000024EC03F0020EF66E040EF76E76EC03F099
:101410000C0E3F6EFA0E406E86EC03F03F2EFAD7AC
:101420009AEC03F00150040844E1939E8A8E0C0E5E
:101430004C6E55EC03F04D6A010E4E6E24EC03F039
:10144000140EF66E040EF76E76EC03F04D6A020E83
:101450004E6E24EC03F0260EF66E040EF76E76EC5C
:1014600003F0040E3F6EFA0E406E86EC03F03F2E42
:10147000FAD79AEC03F0015002081AE1939E8A9E73
:101480000C0E4C6E55EC03F04D6A020E4E6E24ECC1
:1014900003F0300EF66E040EF76E76EC03F0040ED9
:1014A0003F6EFA0E406E86EC03F03F2EFAD701D065
:1014B000BCD79AEC03F00150030802E122EF06F0DA
:1014C0008DD799D43FEF06F0000122EF06F003001C
:020000040030CA
:0E0000003FC93E1E0087A1000FC00FE00F4059
:00000001FF
;PIC18F4550
;CRC=5021  CREATED="15-dic.-24 17:46"
